:020000040800F2
:10000000C0E300207D020008352A00083B290008D3
:10001000312A0008371E000847530008000000007E
:10002000000000000000000000000000214B00085C
:100030008D23000800000000972D0008354C0008B3
:10004000970200089702000897020008970200082C
:100050009702000897020008912300089702000801
:1000600097020008C5230008F9230008970200083A
:1000700097020008970200089702000897020008FC
:1000800097020008970200089702000897020008EC
:1000900097020008970200089702000875240008DC
:1000A00097020008970200089702000897020008CC
:1000B00097020008994C0008970200089702000870
:1000C00097020008970200089702000897020008AC
:1000D00097020008C94F0008970200085150000815
:1000E000970200089702000897020008970200088C
:1000F000970200089702000897020008970200087C
:10010000970200083D330008C94C00089702000818
:100110009702000897020008894D0008214E000848
:10012000970200089702000897020008970200084B
:1001300000F002F800F090F80AA090E8000C824469
:100140008344AAF10107DA4501D100F085F8AFF246
:10015000090EBAE80F0013F0010F18BFFB1A43F0A5
:100160000103184784870000A4870000103A24BFC9
:1001700078C878C1FAD8520724BF30C830C144BF0C
:1001800004680C607047000000230024002500264E
:10019000103A28BF78C1FBD8520728BF30C148BFEA
:1001A0000B6070476E2900F01A84702900F0858179
:1001B000662908F06F80652908F06C80672908F0CF
:1001C0006980612908F0688003681B0A28BF41F034
:1001D0008001692900F0F680642900F0F380752918
:1001E00000F0F0806F2900F01285782900F051812D
:1001F000E92900F0AD84E42900F0AA84F52900F093
:10020000A784EF2900F00F85F82900F050810368DA
:10021000DB0928BF41F08001632900F01C847329A9
:1002200000F02184E32901F01781F32901F01C81FA
:10023000002070471FB501F06DF904000020002177
:1002400008F012F8401C60600020002107F0F6FF63
:10025000E0601FBD10B510BD01F02EF91146FFF78B
:10026000E9FF07F035F801F00BFA03B4FFF7F2FFEE
:1002700003BC05F085F8000001F0D8FD094880476F
:1002800009480047FEE7FEE7FEE7FEE7FEE7FEE778
:10029000FEE7FEE7FEE7FEE704480549054A064B90
:1002A00070470000394C000831010008C0DD002013
:1002B000C0E30020C0DF0020C0DF0020704710B581
:1002C0004C1084EA530404D54042C1F1000138BF08
:1002D000491E1B4204D55242C3F1000338BF5B1EC6
:1002E00000F074FA14F0804F04D04042C1F10001D4
:1002F00038BF491E14F0004F04D05242C3F100032E
:1003000038BF5B1E10BD00001CB50C46064B7B447D
:1003100069460090204600F07CFB044600206946B8
:1003200000F08AFB20461CBD270700000FB40449DB
:1003300010B503AA029800F09BFB10BC5DF814FBFB
:10034000200000200FB41CB5084B06AA7B44694668
:100350000090059800F05DFB04460020694600F01F
:100360006BFB20461CBC5DF814FB0000E906000096
:1003700070B50C460546012A05D02878800600D5C0
:10038000EA69002302E0012305E05B1C934202D2EC
:10039000E05C0028F9D1A869E618C01AA861286AAB
:1003A00018442862284600F088FA04E0D5E90121C3
:1003B00014F8010B9047B442F8D3284600F093FAA2
:1003C00070BD00002DE9F041064600241068752933
:1003D000314616A510D000F097FA002802DA404204
:1003E00013A507E031688A0701D512A502E0490785
:1003F00004D511A5012401E000F08FFA00210A22A2
:1004000006F1240709E0B0FBF2FCB0FBF2F302FBBB
:100410001C00303078541846491C0028F3D123467C
:100420002A463046BDE8F04100F080BA00000000E6
:100430002D0000002B00000020000000F0B40D464D
:100440000188090502D5214C7C4402E01F4C7C4404
:100450000E34002100F1240608E002F00F07120913
:10046000E75D42EA03721B097754491C52EA03070D
:10047000F3D102780023120704D5702D06D009B1FC
:10048000022311342246F0BC00F050BA012310348C
:10049000F8E770B504460D462146106800F03DFAB5
:1004A000024629462046BDE870400023C6E7D21D1B
:1004B00022F00703D3E90023C0E70368126843F082
:1004C000200303600823C3610023B7E7E68200002E
:1004D0002DE9F05F894604464FF0000ADFF874B159
:1004E000FB44C0F820A02046E1688847002874D06B
:1004F000252806D0D4E901219047206A401C2062BB
:10050000F1E700265F462046E16888472028054637
:1005100007DB312D05D2781910F8200C08B10643FD
:10052000F1E7B00701D526F00406C4F81CA00027A7
:10053000C4F818A02A2D09D0284604F01AFF38B3B1
:1005400004EB8708303DC8F8185019E059F8041B2F
:10055000204604EB87029161E1688847012F054638
:1005600018D1E069002820DA26F020061DE0D8F82E
:10057000180000EB800005EB40003038C8F8180088
:100580002046E1688847054604F0F3FE0028EED1D6
:10059000012F0AD02E2D08D12046E16888477F1C04
:1005A0000546022F46F02006C4DBA069002803DAC6
:1005B000404246F00106A061F00701D026F0100687
:1005C0006C2D0BD0682D09D04C2D39D06A2D35D02B
:1005D000742D35D07A2D33D016E038E0E1682F46FF
:1005E00020468847B842054609D16C2F26D04FF4E3
:1005F0008060E168064320468847054604E06C2F8A
:100600001AD04FF4807006430DB3A5F141001928AC
:1006100002D8203546F400664A4629462046266020
:100620004E46FFF7BFFD80B101280BD0F61D26F026
:10063000070000F1080956E74020E4E78020D8E7EA
:100640000020D6E706F104094DE7284652E7206A64
:10065000BDE8F09F7682000030B505460B462A467D
:1006600013F8014B12F8010B08B1A042F8D01CB1ED
:10067000002802D06D1CF1E7284630BD10B5431CA0
:1006800002E010F8011B71B18107FAD14FF001327D
:1006900002C88C1A8C4314EAC211F9D0C01A0A0697
:1006A00003D0C01E10BDC01A10BD0A0401D0801EA8
:1006B00010BD0902FCD0401E10BD032A40F230805C
:1006C00010F0030C00F0158011F8013BBCF1020F93
:1006D000624498BF11F801CB00F8013B38BF11F814
:1006E000013BA2F1040298BF00F801CB38BF00F82B
:1006F000013B11F0030300F0A182083AC0F008802A
:1007000051F8043B083A51F804CBA0E80810F5E78B
:10071000121D5CBF51F8043B40F8043BAFF300806E
:10072000D20724BF11F8013B11F801CB48BF11F8E3
:10073000012B24BF00F8013B00F801CB48BF00F8B3
:10074000012B70474FF0013C50F8042B51F8043B4B
:100750009A4221D1A2EB0C03934313EACC1317D195
:1007600050F8042B51F8043B9A4215D1A2EB0C032C
:10077000934313EACC130BD150F8042B51F8043BEC
:100780009A4209D1A2EB0C03934313EACC13DBD0BA
:100790004FF00000704700BFD01A01BAB1FA81F1E2
:1007A00001F0180122FA01F0CB40C1F12001DBB2C7
:1007B000C0B2C01A2CFA01F3D11A914311EAC31145
:1007C000E6D17047704770477047704753EA020C94
:1007D00000F069802DE9F04B4FF00006002B1FBFA1
:1007E000B3FA83F503FA05F424FA05F65E4012BF66
:1007F0001643B2FA82F502FA05F4C5F120051EBFD0
:1008000022FA05FC44EA0C04203556EA044C4FEA6F
:10081000144418BF641C4FF000084FF000099042C8
:1008200071EB030C39D3002919BFB1FA81F701FA32
:1008300007F6B0FA80F700FA07F6C7F120071EBFE7
:1008400020FA07FC46EA0C062037B6FBF4FCA7EBBF
:100850000507103F07F01F0BCBF120060CFA0BFB2E
:100860002CFA06F644BFB3460026202FA4BF5E46EE
:100870004FF0000B5BEA060C08BF4FF0010B19EBC1
:100880000B09ABFB027C48EB0608C01B06FB02CC45
:100890000BFB03CC71EB0C01C1E70B460246414652
:1008A0004846BDE8F08B13B54FF000004FF0000153
:1008B000AFF30080BDE81C40704770B50446856901
:1008C0000068C10601D5302600E02026C00707D009
:1008D00070BDD4E9012130469047206A401C206257
:1008E0006D1EF6D570BD70B5044685690078C007E9
:1008F00007D170BDD4E9012120209047206A401C17
:1009000020626D1EF6D570BD09684A0501D540B25A
:100910007047C905FCD500B2704709684A0501D582
:10092000C0B27047C905FCD580B270472DE9F047C9
:100930000D4699469246044600F12408016888064F
:1009400004D5E06921F01001216000E00120A842F7
:1009500001DD471B00E00027A1697A1902EB0900BD
:10096000081AA0612078C00602D42046FFF7A5FF30
:10097000002608E0D4E901211AF806009047206A11
:10098000401C761C20624E45F4DB2078C0060AD558
:100990002046FFF792FF06E0D4E90121302090477E
:1009A000206A401C2062381EA7F10107F4DC07E032
:1009B000D4E9012118F805009047206A401C206204
:1009C000281EA5F10105F3DC2046FFF78CFF2078F7
:1009D000000602D50220BDE8F0870120FBE7116880
:1009E0000268006A530501D508700AE0D30501D5F5
:1009F000088006E0130603D5C217C1E9000200E033
:100A0000086001207047000001694A1C02610878F3
:100A1000704700B58FB0CDE901310021059105493E
:100A20007944CDE9031011466846FFF751FD0FB038
:100A300000BD0000E5FFFFFF0A6802F8010B0A6035
:100A4000704710B5436913B1AFF3008001E0FFF7C1
:100A50008FFC012010BD127800F124010A700022E1
:100A60004A700122EDE711684FF0FF32E9E700001C
:100A7000074B70B50D467B44FFF7CBFF0446284675
:100A800000F0F6FC10B14FF0FF3070BD204670BD95
:100A90009F6500002DE9FF5F15468A460446DFF892
:100AA000AC80F8440027D8E900103E46CDE900109C
:100AB00010E03AF816106A4602A800F0DDFC411C6E
:100AC00007D02178890603D5E269391891420DD8FB
:100AD0000744761C2078800602D5E069B84205DD1F
:100AE000AE42E6DB3AF816000028E2D1A069C01B4E
:100AF000A0612046FFF7E1FED8E90010CDE9001023
:100B0000002017E03AF818106A4602A800F0B4FC7A
:100B1000B0F1FF3F81460BD000250DF1080B05E039
:100B2000D4E901211BF8050090476D1C4D45F7D312
:100B300008F10100B0428046E4DB206A38442062BC
:100B40002046FFF7D0FEBDE8FF9F0000C67C0000F6
:100B50002DE9F0418046D21D22F007020025D2E99E
:100B60000002F52915A614D0011E72F1000106DA63
:100B70000023D0EB030063EB020211A608E0D8F8D3
:100B800000108B0701D50FA602E0490701D50EA67C
:100B900001251146002408F1240704E000F080F844
:100BA00030323A55641C50EA0102F7D12B463246E6
:100BB00021464046BDE8F041FFF7B8BE0000000006
:100BC0002D0000002B0000002000000030B40021A8
:100BD00000F1240408E002F00705D208303542EAAB
:100BE0004372DB086554491C52EA0305F3D10468DB
:100BF000002310A2250707D5A40600D421B1C4699B
:100C000001230DA2641EC46130BCFFF78FBE10B576
:100C1000044621461068FFF780FE02462046BDE8E4
:100C200010400023D2E7D21D22F00701D1E90023B2
:100C3000CCE70000000000003000000010B5203AB2
:100C4000C0F00B80B1E81850203AA0E81850B1E885
:100C50001850A0E81850BFF4F5AF5FEA027C24BF3B
:100C6000B1E81850A0E8185044BF18C918C0BDE832
:100C700010405FEA827C24BF51F8043B40F8043BFB
:100C800008BF7047D20728BF31F8023B48BF11F8B0
:100C9000012B28BF20F8023B48BF00F8012B70470A
:100CA00030B5B0F10A024FEA900E71F100034EEA3E
:100CB000817EB0EB0E0061EB91014FEA101E4EEA0F
:100CC000017E10EB0E0041EB11114FEA102E4EEA9F
:100CD000016E10EB0E0041EB11214FEA104E4EEA6F
:100CE000014E10EB0E0041EB1141401841F10001A3
:100CF0004FEAD00040EA41704FEAD10110EB800585
:100D00004FEA810444EA907444EB01046D1944EB0A
:100D10000404521BA3414FF0000348BF0A3200D520
:100D200030BD401C41F1000130BD70472DE9FF4F3F
:100D30000C461E464FF0FF378BB0D2E90001DDF8BC
:100D400060800A908A46C1F30A5505B93D460021E4
:100D500008464FF00000BAF1000F00F4400005DA39
:100D600000EB80004FF4400101EA50004FEA905937
:100D7000B9F1010F00DDB9460A9850EA4A000ED0D9
:100D800044F61050A5F2FF3545432F14B8F1000F7B
:100D90001ED07542291E1EDDC9F100021CE0B8F10B
:100DA000010F4FF0000001D0302103E0F24305E0D5
:100DB0002154401CB042FBDB30460022002121546C
:100DC0000B99C1F80880C1E900200FB0BDE8F08F91
:100DD000BD1B6D1CDEE74A4600DA694206A800F03A
:100DE000DDFB06AB93E8070003AB83E80700504642
:100DF0000A9900F053FC8DE80700A0F500501F3859
:100E000000900398002D0ADD42F21F014A46084473
:100E1000002303A90390684600F0BCFE09E0A0F59A
:100E200000504A461F38002303A90390684600F08B
:100E3000C6FE8DE807000004000C03D04FF0FF3021
:100E4000410800E01046B8F1000F03D000220092E4
:100E500015461EE0751E05D4FFF722FF303262559D
:100E60006D1EF9D5B3460122084302D000227F1C33
:100E700004E02078302801D100227F1E002A099743
:100E800084D01DE0112D07DAFFF70AFF30326255DA
:100E90006D1C50EA0102F5D1084302D00098C8B198
:100EA0000EE00021681E05E0235C625C635422545E
:100EB000401E491C8142F7DBAB46A81B401E09902F
:100EC000002004F80B000B98099AC0F80880C0E9CC
:100ED000002B7AE711264FF0000857E72DE9F04F75
:100EE00088460446D21D22F0070191B0D1E90001E5
:100EF000CDE90A0104F029FA02460B98C00F01D08F
:100F00002D2007E02068810701D52B2002E0202159
:100F100001EAC000032A099001D0072A05DB034635
:100F20004146204600F0FAFA0BE12078800601D510
:100F3000E06900E00620B8F1650F814606D0B8F1FF
:100F4000660F18D0B8F1670F70D131E00020B9F109
:100F5000110F009001DB112301E009F101030AAA3E
:100F600001A90CA8FFF7E2FEDDE90C70002609F1EB
:100F70000105834647E001204B4600904FF00047B3
:100F80000AAA01A90CA8FFF7D1FEDDE90DB00C9962
:100F90005D46002610B909F101000D18B9EB0500F6
:100FA00003D4C0F1FF3609F10105A5EB09002BE0E0
:100FB000B9F1010F01DA4FF001090020B9F1110F69
:100FC0000090484601DD112300E003460AAA01A96A
:100FD0000CA8FFF7ABFEDDE90C704D4600268346FA
:100FE000207800070AD4AB4500DA5D4601A8012D40
:100FF00004DD411911F8011C302907D04F4502DAF0
:1010000017F1040F04DA012082460FE06D1EEEE7AF
:10101000002F02DCED1B3E4403E0781CA84200DDFB
:101020007D1CB81B00F1010A4FF000472078000733
:1010300003D4AA4501DB4FF0FF3A0021B7F1004F7E
:101040000DF143088DF8431024D002202B23002FEC
:1010500001DA7F422D230A21021EA0F1010000DCEB
:101060005FB197FBF1FC97FBF1F201FB1C7C17468B
:101070000CF1300C08F801CDEEE7A8F10100037087
:101080002188090501D5452100E06521A0F101086D
:1010900000F8011C09980FA9A1EB0807FF1D00B17A
:1010A0000120411901EBEA70A1693844081A401E79
:1010B000A0612078C00602D42046FFF7FEFB099805
:1010C00028B1D4E901219047206A401C2062207891
:1010D000C00622D52046FFF7F0FB1EE0002E04DB01
:1010E000B34502DD01A8805D00E03020D4E9012194
:1010F0009047206A401C2062761CAAF101005FEA3A
:10110000000A0AD100F006FAC0680168405CD4E920
:1011100001219047206A401C2062281EA5F101058C
:10112000DCDC07E0D4E9012118F8010B9047206AC4
:10113000401C2062381EA7F10107F3DC2046FFF7B0
:10114000D2FB032011B041E62DE9F04F04460D46D5
:10115000D21D22F0070089B0D0E9009748463946F1
:1011600004F0F3F80246F80F01D02D2307E02068C1
:10117000810701D52B2302E0202101EAC0038DF86D
:1011800020300BB1012000E00020032A824601D06C
:10119000072A04DB2946204600F0C0F93FE1207809
:1011A000800601D40D2500E0E569C7F30A560D2D30
:1011B00049DA00214FEA175B08464FF00000002F84
:1011C00000F4400007DA00EB80004FF4400100EB30
:1011D000D07001EA60008115012901DD4FF0FF3177
:1011E00000224FEA850CBCF1180F06D31346ACF170
:1011F00018004FF08052C24003E04FF4801323FAEE
:101200000CF30CF10C0CBCF1200F04D3ACF1200C4E
:1012100009FA0CF001E007FA0CF000294FF0004841
:1012200001DD18B90FE00ED140450CD319EB0209CE
:101230005F4121B9404502D19F4329EA0209BBEB36
:10124000175F00D0761C2088000502D57B487844C3
:1012500002E07A487844193808AA302302F80A30A4
:10126000037C0AF10101002E0AF1020A53546A4676
:1012700002DC4FF0300101E04FF031014FF0010886
:101280008DF8001002D0A6F2FF3603E059EA4701BC
:1012900000D06B4E002D02DC2178090704D54FF0F9
:1012A00002082E218DF80110C44600210BE0C7F37F
:1012B00003433F01C35C491C6D1E02F80830052939
:1012C00008F1010801DA002DF1DC00210CE000EB4F
:1012D0001973491C1B786D1E082902F808304FEA63
:1012E000091908F1010801DA002DF0DC21688B06EC
:1012F00002D516E0A8F10108E04505DD02EB080380
:1013000013F8013C302BF5D0B8F1000F09DD02EBEA
:10131000080313F8013C2E2B03D1090701D4A8F1CF
:101320000108002D05DD3E2102F808106D1E08F1B0
:101330000108407C002E02F8080008F1010804DAD8
:101340002D20764202F8080002E02B2002F8080067
:101350000A214FF47A70864208F101080BDB96FBF4
:10136000F0F3303302F8083096FBF0F308F101088F
:1013700000FB136601E0642E0CDB642096FBF0F3A7
:10138000303302F8083096FBF0F308F1010800FB57
:10139000136601E00A2E06DB96FBF1F0303002F80E
:1013A000080008F1010896FBF1F001FB10603030F5
:1013B00002F80800A16908F1010808EB050202EB38
:1013C0000A00081AA0612078C00602D42046FFF760
:1013D00074FA216A08AE01EB0A00206204E0D4E945
:1013E000012116F8010B9047BAF1010AF7D22078D3
:1013F000C00602D52046FFF760FA6E4609E016F8EF
:10140000010B3E280FD0D4E901219047206A401CEF
:101410002062B8F10108F2D22046FFF764FA09B061
:101420000320BDE8F08F206A2844206203E0D4E95D
:101430000121302090476D1EEBD3F8E73575000091
:1014400002FCFFFF10B5436913B1AFF3008001E068
:10145000FFF720FB012010BD128800F124018284D7
:101460000022C2840122EDE711684FF0FF32E9E764
:10147000007B00F08000704770B516460C460546AC
:1014800000F040F8036893F80101012806D0FF2C12
:101490000FD8185D68B101202C7070BDD3F807011A
:1014A0003246214603F2071303442846BDE8704044
:1014B00018474FF0FF3070BD754600F0EBF8AE46B0
:1014C00005006946534620F00700854618B020B550
:1014D000FEF7E2FEBDE820404FF000064FF00007A7
:1014E0004FF000084FF0000B21F00701AC46ACE8CC
:1014F000C009ACE8C009ACE8C009ACE8C0098D4639
:101500007047000010B500F005F8001D10BD00BFC9
:10151000596D00000048704780DD00202DE9F04142
:101520001F46044603260168072A01F4006004DB15
:1015300008B116A505E016A503E008B115A500E061
:1015400015A521F010002060A069C01EA0610FB198
:10155000401EA0612046FFF7B0F94FB1D4E9012148
:1015600038469047206A401C2062C01C206206E07A
:10157000206AFAE7D4E9012115F8010B9047761E9D
:10158000F8D22046FFF7AFF9BDE8F0814E414E009A
:101590006E616E00494E4600696E66002DE9F047A7
:1015A000814616468AB0354878440DC88DE80D004E
:1015B00032487844801C03AC0DC884E80D0041F625
:1015C0009B300844372190FBF1F290FBF1F5A5F137
:1015D000800501FB12041B3C02D56442012000E09F
:1015E0000020DFF898A080460027FA44AAF1BE0A3E
:1015F0000EE0E0070AD03246684607EB47010123B8
:101600000AEB810100F0DBFA8DE8070064107F1C13
:10161000002CEED1194F7F44AE3F19E0E80715D0FA
:1016200007EB04100DF1180A90E80E008AE80E008E
:10163000C068F04201D1981908903246012306A9EA
:1016400003A800F0BCFA03AB83E807006D10641C2C
:10165000002DE3D14FF0010332466946B8F1000F87
:1016600003A802D000F096FA01E000F0A8FAC9E958
:101670000001C9F808200AB0BDE8F0876C720000CC
:1016800010B50446AFF300802046BDE81040FEF7D9
:10169000ECBD00000048704760DD00205FEA400CB0
:1016A00008BF91F0000F4FEA8C234FEAC12243EAB2
:1016B00051514FEA1C5018BF00F5F0404FEA30007E
:1016C00018BF41F000415FEA6C5C00F02980BCF17A
:1016D000FF3F08BF40F080407047130C06BF120464
:1016E0004FF0100C4FF0000C130E04BF12020CF15F
:1016F000080C130F04BF12010CF1040C930F04BF6C
:1017000092000CF1020CD30F04BF52000CF1010C3B
:1017100011464FF00002A0F11F00A0EB0C00704733
:1017200011F0004F08BF704731F000413FF4D5AFD2
:101730000B0C06BF09044FF0100C4FF0000C0B0E01
:1017400004BF09020CF1080C0B0F04BF09010CF1D6
:10175000040C8B0F04BF89000CF1020CCB0F04BFEB
:1017600049000CF1010CCCF12003A0EB0C0022FA93
:1017700003F302FA0CF241EA030100F101007047A1
:1017800020F07F4C80EA030023F07F47ACEB070397
:1017900003F57C5300F0004003F1FF032DE980497D
:1017A0004FEA154B09B44FEA144325EA0B4E24EADD
:1017B00003480FF2042606EB132749083E785FEA38
:1017C000320203FB0667C7F5000707FB06F64FEA80
:1017D00054374FEAD64606F1020607FB066CCCF1F9
:1017E000005C4FEA1C472CEA074C07FB06F40CFB95
:1017F00006F504EB15464FEA961634BF00204FF06D
:1018000000404FEAD13706FB07FC4FEA1C4C0CFBAB
:101810000BF7D21B03FB0CF761EB07010CFB0EF778
:10182000B0EB074072EB17420CFB08F734BFA2EB9A
:101830000742B2EB074261EB17414FEA0C444FEA13
:10184000910706FB07FC4FEA1C4C0CFB0BF7B0EBB7
:10185000C74072EB573203FB0CF734BFA2EBC74211
:10186000B2EBC74261EB57310CFB0EF7B0EBC70090
:1018700072EB57720CFB08F734BFA2EBC702B2EB56
:10188000C70261EB5771039F4FEA816141EA9211F0
:1018900004EBCC044FEAD1374FEA826206FB07FC27
:1018A00042EA90124FEA80604FEA1C4C0CFB0BF7A7
:1018B000D21B03FB0CF761EB07010CFB0EF7B0EB3F
:1018C000074072EB17420CFB08F734BFA2EB07424C
:1018D000B2EB074261EB17414FEA8C554FEA910793
:1018E00004EB9C2406FB07FC4FEA1C4C0CFB0BF79B
:1018F000B0EBC74072EB573203FB0CF734BFA2EBDF
:10190000C742B2EBC74261EB57310CFB0EF7B0EBAD
:10191000C70072EB57720CFB08F734BFA2EBC7028B
:10192000B2EBC70261EB577115EB4C254FEA8161B1
:1019300041EA92114FEA82624FEAD13742EA9012AD
:1019400006FB07FC44F100044FEA80604FEA1C4CA0
:101950000CFB0BF7D21B03FB0CF761EB07010CFB35
:101960000EF7B0EB074072EB17420CFB08F734BFE1
:10197000A2EB0742B2EB074261EB174115EB1C15D6
:101980004FEA813141EA92414FEA823242EA904283
:101990004FEA80304FEA0C7644F1000448EA0343F2
:1019A0004EEA0B484FF0000EB2EB080C71EB030748
:1019B00024BF624639464EEB0E0E4FF0000B001866
:1019C000524149414BEB0B0BB2EB080C71EB030797
:1019D0007BF1000B24BF624639464EEB0E0E4FF0F2
:1019E000000B0018524149414BEB0B0BB2EB080CBA
:1019F00071EB03077BF1000B24BF624639464EEBC7
:101A00000E0E51EA020718BF46F0010616EB0E76DD
:101A100055F1000254F1000103D5BDE88901BDE88C
:101A20000088BDE88901BDE80048B619524141EB84
:101A30000101A3F10103704780807F7E7D7C7B7A6A
:101A40007978777676757473727171706F6E6E6D6A
:101A50006C6C6B6A6A696868676666656464636310
:101A600062616160605F5F5E5E5D5D5C5C5B5B5A96
:101A70005A59595858575756565555555454535303
:101A800052525251515050504F4F4F4E4E4D4D4D5E
:101A90004C4C4C4B4B4B4A4A4A49494948484847A9
:101AA00047474746464645454544444444434343E7
:101AB0004342424242414141002B9C4630D4770090
:101AC0002BD01CB54FEA370703B44FF010004FF08E
:101AD0001001BAF1000F06D0BCF1000FDCBF40F0DE
:101AE000080040F008014FF000000FBCBDE81040B6
:101AF0000BF1010BBBF1010F08BF5FEA170722BF13
:101B000012F1010211F101014FF0004143F1000314
:101B100000F0004043EA00007047F9D35708D0E7CF
:101B200046EA064613F1400F4FEA16461FDD13F151
:101B3000200FDFBF16430A46002120335B42BED090
:101B4000C3F1200746EA064602FA07F74FEA1646AF
:101B500046EA0706C3F1200722FA03F201FA07F763
:101B600021FA03F14FF0000342EA0702A7E746EA31
:101B7000020646EA06464FEA164646EA0106BCBF9A
:101B800046EA0646360C4FF000034FF000024FF0D5
:101B9000000194E72DE9804C9A46934670B491E891
:101BA000380007C831EA400C48BF34EA430C03D57B
:101BB000FFF7E6FDFFF780FFF0BCBDE8008C2DE9E4
:101BC000804C9A46934670B491E8380007C810F0EC
:101BD000804F08BF13F0804F03D100F005F8FFF7E6
:101BE0006BFFF0BCBDE8008C20F07F4780EA03006B
:101BF00023F07F4C07EB0C03A3F57C5300F000406F
:101C0000A3F1FE0392F0000F00F0B38095F0000FF7
:101C100000F077802DE901494FEA11404FEA144660
:101C200021EA004800FB06FC24EA064708FB06F60A
:101C300007FB08F800FB07F718EB06484CEB164CBF
:101C40004FEA124B18EB07484FEA15464CEB17408A
:101C500022EA0B4E0BFB06FC25EA06470EFB06F6B6
:101C600007FB0EFE0BFB07F71EEB064E4CEB164C6C
:101C70004FF000061EEB074E4CEB174B18EB0B0812
:101C800040F1000018EB0E0B58EB000840F100008B
:101C90008F1A4FF000013CBFC943661B14BFB5EB60
:101CA000040C00213CBFC943F61B4FEA17444EEA1F
:101CB0008E0E27EA04454FEA1C4704FB07622CEA14
:101CC000074C05FB07F70CFB05F604FB0CFC16EBB9
:101CD000074642EB174216EB0C4642EB1C421BEB4D
:101CE000060658EB0202414146EA9E0601D5BDE8D0
:101CF0000189B619524141EB0101A3F10103BDE88D
:101D000001894FEA14454FEA114724EA054621EAC2
:101D1000074C05FB07F406FB07F70CFB06F105FB78
:101D20000CFC11EB074144EB17444FEA124711EB4F
:101D30000C4144EB1C4422EA074C05FB07F206FB6E
:101D400007F70CFB06F605FB0CFC16EB074642EB0F
:101D5000174216EB0C4642EB1C456A1854F1000181
:101D600048BF7047B619524141EB0101A3F101038D
:101D7000704795F0000F37D04FEA11424FEA1447F1
:101D800021EA024624EA074C02FB07F106FB07F7AB
:101D90000CFB06F402FB0CFC14EB074441EB17416F
:101DA0004FEA154714EB0C4441EB1C4125EA074C64
:101DB00002FB07F506FB07F70CFB06F602FB0CFC23
:101DC00016EB074645EB174516EB0C4645EB1C4258
:101DD000121951F1000148BF7047B619524141EB49
:101DE0000101A3F1010370474FEA14454FEA11477F
:101DF00024EA054621EA074C05FB07F106FB07F735
:101E00000CFB06F24FF0000605FB0CFC12EB074240
:101E100041EB174112EB0C4251EB1C4148BF70479C
:101E2000921841EB0101A3F10103704740F2010C4C
:101E3000C2F2000C604700BFFEE770B500254FF40A
:101E4000803404E0802001F065FA00B103E0201E38
:101E5000A4F10104F6D100BF0CB9032070BD40F21B
:101E6000FF5001F011FA2846F8E7000070B504466B
:101E700005E01548456B05F0450000B100E0F8E7C6
:101E800000BF042001F046FA20B1042001F0FCF963
:101E9000032070BD012001F03DFA20B1012001F0C6
:101EA000F3F90120F5E708480069A04201D01020AD
:101EB000EFE740F2FF500449886308464069082173
:101EC0000840C0B2E5E700000080014070B5002680
:101ED0004FF4803505E01148446B04F0450000B133
:101EE00003E0281EA5F10105F5D100BF15B104F0EE
:101EF000040028B10326042001F0C6F9304670BD65
:101F0000012001F007FA18B10126012001F0BCF907
:101F100040F2FF5001F0B8F93046F0E70080014090
:101F200010B505E00B48446B04F0450000B100E03B
:101F3000F8E700BF042001F0EDF920B1042001F022
:101F4000A3F9032010BD40F2FF5001F09DF90020DD
:101F5000F8E70000008001402DE9F04105460E46FB
:101F60004FF0000805E01F48476B07F0450000B13F
:101F700000E0F8E700BF042001F0CCF928B104200C
:101F800001F082F90320BDE8F081012001F0C2F9DF
:101F900020B1012001F078F90120F4E7114800692F
:101FA000A84201D01020EEE740F2FF5001F06CF99A
:101FB0000C48446904F4604018B9200C3080404655
:101FC000E1E704F4005008B11320DCE704F480409A
:101FD00008B11020D7E704F4004008B10F20D2E781
:101FE0004046D0E70080014070B500264FF48035B0
:101FF00005E00F48446B04F0450000B103E0281EE3
:10200000A5F10105F5D100BF15B104F0040028B118
:102010000326042001F038F9304670BD04F040007A
:1020200018B10026402001F02FF93046F5E70000F6
:102030000080014010B500241548406820F470402D
:10204000134948600846406840F40040486004E096
:10205000601CC4B2012003F01FFF0E48006808B1E5
:10206000642CF5DB642C01DB012010BD002404E0AE
:10207000601CC4B2012003F00FFF0648006808B9D5
:10208000642CF5DB642C01DB0120EEE70020ECE79B
:10209000002001402C01244208B50121080200F073
:1020A000ABFE4FF40060ADF8000010208DF8030087
:1020B00003208DF802006946064800F05FFB4FF4EC
:1020C0000061044800F037FC00F070F8FFF7B2FF41
:1020D00008BD00000020014010B5002404E0601C91
:1020E000C4B2012003F0D8FE0D48006808B1642C8A
:1020F000F5DB002404E0601CC4B2012003F0CCFE38
:102100000748006808B9642CF5DB282003F0C4FEFA
:102110000348006808B1012010BD0020FCE7000062
:102120002C01244270B50024002506E06006040E50
:10213000FFF7D2FF0443681CC5B2082DF6DB20462A
:1021400070BD7CB505460E4600F030F8FFF772FF13
:1021500038BB002405E0FFF7E5FF0DF80400601C24
:10216000C4B2052CF7DB9DF800009DF8011008446F
:102170009DF8021008449DF8031008449DF80410CF
:10218000884210D19DF801009DF8001040EA01201E
:1021900030809DF803009DF8021040EA012028805D
:1021A00001E001207CBD0020FCE7000010B50C48D8
:1021B000406820F470400A4948600846406840F48E
:1021C00040504860002007490860142003F03EFE9C
:1021D00001200549C1F8AC011E2003F05DFE10BDD1
:1021E00000200140AC0124420000244221B10268D9
:1021F00042F00102026004E002684FF6FE731A40EA
:102200000260704701684FF6FE72114001600021C4
:10221000016041608160C1604B49884208D14A49F0
:102220000839496841F00F01474A083A51608AE08D
:1022300045491431884208D143490839496841F079
:10224000F001414A083A51607DE03F492831884217
:1022500008D13D490839496841F470613A4A083A61
:10226000516070E038493C31884208D1364908391C
:10227000496841F47041344A083A516063E0324998
:102280005031884208D130490839496841F47021F9
:102290002D4A083A516056E02B496431884208D1F2
:1022A00029490839496841F47001274A083A5160C0
:1022B00049E025497831884208D1234908394968DD
:1022C00041F07061204A083A51603CE01F49884261
:1022D00006D1011F096841F00F01021F116032E0B1
:1022E0001A491431884208D11849091F096841F078
:1022F000F001164A121F116025E014492831884266
:1023000008D11249091F096841F470610F4A121F70
:10231000116018E00D493C31884208D10B49091F72
:10232000096841F47041094A121F11600BE0074926
:102330005031884207D10549091F096841F47021CD
:10234000024A121F11607047080002400804024050
:1023500010B50022026847F6F0739A430C6A8B6846
:1023600023430C6923434C6923438C692343CC6981
:1023700023434C6A23438C6A23431A430260CB688D
:1023800043600B6883604B68C36010BD70470000FA
:1023900010B50A2003F05AFD0121084800F0C2FAE6
:1023A000012807D10648006808B9012000E0002094
:1023B00003490860012000F093F810BD00080140B7
:1023C000A081214210B50A2003F040FD08210848F1
:1023D00000F0A8FA38B90748006808B9012000E001
:1023E000002004490860082000F07AF810BD0000C1
:1023F000001801409401234210B50A2003F026FD85
:102400001021084800F08EFA38B90748006808B96A
:10241000012000E0002004490860102000F060F86E
:1024200010BD000000180140948121420EB5082122
:10243000002000F083F94FF48070019000208DF8A7
:10244000080008208DF8090001208DF80A0001A875
:1024500000F060F817208DF8000000208DF80100D2
:102460008DF8020001208DF80300684600F0E4FAC0
:102470000EBD000010B54FF4807000F037F8012851
:102480001ED11248007878B9002011490860012057
:102490001049C1F898011049C1F88C010B48007827
:1024A000401C0A4908700BE008480078012807D151
:1024B00000200A49086005480078401C034908705C
:1024C0004FF4807000F00CF810BD00003E000020BA
:1024D0009881224200802242008021428C81214248
:1024E00001490860704700001404014001460020C3
:1024F0000022074B1B6803EA0102054B14331B68DB
:102500000B4013B10AB1012000E000207047000029
:1025100000040140002123498279002A3AD00A466A
:10252000126803689A430B461A600A1D1268036812
:102530009A430B1D1A60027911440A6803681A4312
:102540000A60184A0832126803689A43154B083328
:102550001A601A1D126803689A43124B0C331A60F2
:102560004279102A0ED11A1F126803681A430D4BC4
:1025700008331A601A1D126803681A43094B0C339A
:102580001A600DE00749427911440A6803681A434A
:102590000A6005E0027911440A6803689A430A60F8
:1025A00070470000000401402DE9FC4107460D463C
:1025B0000026002400200090019008205B4908605C
:1025C00010204860402088600020C8604FF4806080
:1025D0000861084600F0D4FE1020FFF747FC0446CF
:1025E00014B12046BDE8FC815148008800044F49E1
:1025F000086037204860402088600020C8604FF4A1
:1026000080600861084600F0BBFE3720FFF72EFC13
:1026100004460CB12046E5E74FF0FF30454908601D
:1026200008204860302088600220C86000200861CF
:1026300001204861084600F043FE00203B49086045
:1026400033204860402088600020C8604FF48060DC
:102650000861084600F094FE3320FFF707FC0446AB
:102660000CB12046BEE70CE04FF4001000F052FE23
:1026700038B100F07FFE4DF82600761C022E00D304
:1026800006E02D48406B40F22A6108400028EBD05C
:1026900000BF082000F03EFE20B1082000F0F4FD4D
:1026A00004209FE7022000F035FE20B1022000F058
:1026B000EBFD022096E7202000F02CFE20B1202028
:1026C00000F0E2FD06208DE74FF4007000F022FEDE
:1026D00028B14FF4007000F0D7FD072082E740F2E8
:1026E000FF5000F0D1FD00980006009901F47F41F1
:1026F00040EA0120009901F47F0140EA112000998D
:1027000040EA1160686001980006019901F47F4178
:1027100040EA0120019901F47F0140EA112001996A
:1027200040EA1160286020465CE70000C8010020F4
:102730002C000020DC0100200080014030B5002288
:102740008B071C0F0F2303FA04F20B4B8C1053F86A
:1027500024309343084C8D1044F8253023468C10C8
:1027600053F824308C07240F00FA04F42343024C5E
:102770008D1044F8253030BD080001402DE9F041AE
:10278000024600250026002000230024002791F89F
:1027900003C00CF00F0591F803C00CF0100CBCF155
:1027A000000F03D091F802C04CEA050591F800C073
:1027B000BCF1000F31D0146800202BE04FF0010C69
:1027C0000CFA00F3B1F800C00CEA03069E4220D1D7
:1027D00083004FF00F0C0CFA03F7BC4305FA03FC1F
:1027E0004CEA040491F803C0BCF1280F06D14FF065
:1027F000010C0CFA00FCC2F814C00AE091F803C006
:10280000BCF1480F05D14FF0010C0CFA00FCC2F8E6
:1028100010C0401C0828D1D31460B1F800C0BCF12E
:10282000FF0F34DD546800202EE000F1080C4FF05B
:10283000010808FA0CF3B1F800C00CEA03069E4246
:1028400021D183004FF00F0C0CFA03F7BC4305FABB
:1028500003FC4CEA040491F803C0BCF1280F05D135
:1028600000F1080C08FA0CF8C2F8148091F803C0C3
:10287000BCF1480F07D100F1080C4FF0010808FA2D
:102880000CF8C2F81080401C0828CED35460BDE874
:10289000F0810000F0B50A46002300240021002545
:1028A00000F00046B6F1004F02D11D4EF16901E083
:1028B0001B4E7168C0F3034583B200F44016B6F5B1
:1028C000401F08D121F07061154E766826F07066C1
:1028D000134F7E6012E000F48016B6F5801F06D11B
:1028E000032606FA05F4A14341F0706106E0460DA7
:1028F000360103FA06F6B14341F0706122B1460D8C
:10290000360103FA06F6314300F00046B6F1004FF7
:1029100002D1034EF16101E0014E7160F0BD000093
:10292000000001400246002093680B400BB10120DB
:1029300000E0002070470161704700BFFEE772B6FB
:10294000704762B6704700001CB504460020019035
:102950000090214800880004204908600D2048604C
:10296000402088600020C8604FF4806008610846FD
:1029700000F006FD1A48406B009002E01848406BDA
:102980000090009800F045000028F7D0012000F0EA
:10299000C1FC20B1012000F077FC01201CBD042007
:1029A00000F0B8FC20B1042000F06EFC0320F5E735
:1029B0000B4800690D2801D01020EFE740F2FF50CE
:1029C00000F062FC0648406901900198C0F3432082
:1029D00020700020E2E700002C000020C801002049
:1029E0000080014008B50121482000F005FA2020B0
:1029F000ADF8000010208DF8030003208DF80200D0
:102A000069460948FFF7BAFE20210748FFF793FF00
:102A10002020ADF8000069460448FFF7AFFE2021F2
:102A20000248FFF788FF08BD000C01400018014074
:102A300000BFFEE77047000070B5002100230F22A1
:102A4000C47804B3154C246804F4E064C4F5E0646D
:102A5000210AC1F10403CA40447804FA03F18478DE
:102A60001440214309010E4C0678A155047804F066
:102A70001F050124AC4005786D11AD0005F1E0257E
:102A8000C5F8004109E0047804F01F050124AC40BA
:102A9000044D0678761145F8264070BD0CED00E037
:102AA00000E400E080E100E002490143024A1160D5
:102AB000704700000000FA050CED00E038B5002575
:102AC0000024012140F23D1000F096F94FF480708F
:102AD000ADF8000048208DF8030003208DF80200B7
:102AE00069464548FFF74AFE4FF480714248FFF7B8
:102AF00022FF1820ADF8000010208DF80300694671
:102B00003E48FFF73BFE18213C48FFF714FFFF202B
:102B1000ADF8000048208DF8030069463848FFF7FB
:102B20002DFE4020ADF8000010208DF8030069460E
:102B30003448FFF723FE40213248FFF7FCFE4FF4F4
:102B40004040ADF8000010208DF8030069462E4883
:102B5000FFF714FE4FF440412B48FFF7ECFE012134
:102B60002A48FFF797FE00F0D1F98021122000F0EB
:102B700015FB08B1012038BD322003F067F91C2095
:102B800000F05AFA04464FF6FF7000EA04241D20B4
:102B900000F052FA044347F6A270844205D0214661
:102BA0001BA0FDF7C3FB0120E5E70A2000F044FA73
:102BB00004464FF6FF7000EA04240B2000F03CFAB4
:102BC000044347F22170844205D0214613A0FDF74B
:102BD000ADFB0220CFE700250AE0134A02EB4502D5
:102BE0005178114A12F8150000F0D8FA681C85B225
:102BF000412DF2D30020BEE700080140000C014047
:102C0000001001400014014000200140000230008B
:102C10004D49443A25640D0A000000004849443AF1
:102C200025640D0A000000009C8200082DE9F04791
:102C300004460D469146B9F1000F2CD0C4F5207022
:102C400000EBD071C1F34F07C5F5F07000EBD07108
:102C5000C1F34F080621122000F0A0FA232117200B
:102C600000F09CFAA021182000F098FA0721192002
:102C700000F094FAF0211A2000F090FA002132209E
:102C800000F08CFAA021292000F088FAF0212C20F5
:102C900000F084FA2BE0C4F5A07000EBD071C1F312
:102CA0004F07C5F1F00000EBD071C1F34F0846218A
:102CB000122000F073FA3F21172000F06FFA502124
:102CC000182000F06BFA0321192000F067FA782130
:102CD0001A2000F063FA0021322000F05FFA502140
:102CE000292000F05BFA78212C2000F057FA1720F9
:102CF00000F0A2F9064606EBA70000F0FF0A5146D5
:102D0000172000F04BFAC4F38701182000F046FAB0
:102D1000192000F091F9064606EB680000F0FF0A62
:102D20005146192000F03AFAC5F347011A2000F085
:102D300035FA322000F080F906464FEAC870400E9E
:102D400007F0030140EA011005F0010140EA8100AB
:102D500004F00301084340EA060A5146322000F01D
:102D60001DFAC4F38701292000F018FAC5F34701C2
:102D70002C2000F013FA2A2000F05EF904F0030082
:102D8000304305F0010140EA810A51462A2000F053
:102D900005FABDE8F087704729B1064A5269024337
:102DA000044B5A6104E0034A52698243014B5A6161
:102DB000704700000010024029B1064AD269024360
:102DC000044BDA6104E0034AD2698243014BDA61C1
:102DD000704700000010024029B1064A1269024300
:102DE000044B1A6104E0034A12698243014B1A61E1
:102DF000704700000010024029B1064A9269024360
:102E0000044B9A6104E0034A92698243014B9A6140
:102E1000704700000010024029B1064AD268024300
:102E2000044BDA6004E0034AD2688243014BDA6063
:102E3000704700000010024030B50021002200243D
:102E400000232D4D6D6805F00C0121B1042905D03A
:102E5000082923D105E0294D056022E0274D0560B2
:102E60001FE0254D6D6805F47012234D6D6805F463
:102E70008034022505EB92421CB9214D5543056073
:102E80000BE01D4D6D6805F400351DB11C4D55431B
:102E9000056002E0194D5543056002E0174D0560DD
:102EA00000BF00BF144D6D6805F0F0010909154D14
:102EB0006B5C0568DD4045600F4D6D6805F4E061B1
:102EC000090A104D6B5C4568DD4085600A4D6D68F0
:102ED00005F46051C90A0B4D6B5C4568DD40C56067
:102EE000054D6D6805F44041890B074D6B5CC56865
:102EF000B5FBF3F5056130BD0010024000127A0009
:102F000000093D003F0000204F00002008B50121CE
:102F10004FF49070FFF770FF4FF40050ADF80000D1
:102F200048208DF8030003208DF8020069461148FF
:102F3000FFF724FC4FF400510E48FFF7FCFC08207B
:102F4000ADF8000010208DF8030069460A48FFF72D
:102F500015FC08210848FFF7EEFC0648406820F4FD
:102F60007000044948600846406840F440104860DA
:102F700008BD0000002001400014014010B53220BF
:102F800002F08AFF01200B4908600B49C1F88C014F
:102F9000322002F081FF002008490860322002F050
:102FA0007BFF00200649C1F8B401322002F074FF13
:102FB00010BD0000B4012442008022428C812242D4
:102FC0000000244270B500241848406820F47000C6
:102FD000164948600846406840F4000048600825EB
:102FE00015E0322002F058FF012011490860600608
:102FF000040E1048D0F8340108B1601CC4B232206D
:1030000002F04AFF00200A490860681EC5B2002D80
:10301000E7DC0648406820F4700004494860084630
:10302000406840F440104860204670BD00200140D8
:103030008C8122420000244270B50446002500F035
:1030400023F8422000F054F8642002F025FF2046C7
:1030500000F04EF8642002F01FFF00F02FF864200B
:1030600002F01AFF00F010F8432000F041F864204D
:1030700002F012FFFFF7A6FF0546FFF77FFF00F003
:103080001DF8284670BD000010B5012009490860F0
:103090000949C1F88C01322002F0FEFE00200549EA
:1030A0000860322002F0F8FE00200349C1F88C01CC
:1030B00010BD0000B40124420080224210B500205F
:1030C00009490860322002F0E7FE01200749C1F8F3
:1030D0008C01322002F0E0FE01200349086032201A
:1030E00002F0DAFE10BD0000B4012442008022424A
:1030F00070B5044600261AE004F0800018B10120E3
:103100002149086002E000201F4908606006040EA3
:10311000322002F0C1FE01201C490860322002F07A
:10312000BBFE00201A49C1F88C01701CC6B2082EE3
:10313000E2DB1848406820F47000164948600846F1
:10314000406840F400004860322002F0A5FE0120F3
:103150000E490860322002F09FFE0F48D0F834017B
:1031600008B1012500E00025002008490860094851
:10317000406820F47000074948600846406840F401
:1031800040104860284670BDB40124428C81224220
:1031900000802242002001400000244270B5054614
:1031A0000C460026FFF770FF4220FFF7A1FF00B199
:1031B0000126642002F070FE2846FFF799FF00B157
:1031C0000126642002F068FE2046FFF791FF00B15F
:1031D0000126FFF773FF304670BD00007CB5054641
:1031E000002400200090019000260DB1022600E08E
:1031F00000262248406900F0007008B10E207CBD16
:103200001F49098888B26946FFF7CEF904460CB118
:103210002046F4E7019800F4802060B31848008845
:10322000000418490860372048604020886000206A
:10323000C8604FF480600861084600F0A1F83720AC
:10324000FEF714FE04460CB12046D8E70D48066090
:1032500006200C494860402088600020C8604FF478
:1032600080600861084600F08BF80620FEF7FEFD3E
:1032700004462046C3E72520C1E700000080014046
:103280002C000020C801002001498863704700001D
:10329000008001400149086070470000A0003042F2
:1032A0000146034A506820F0FF0008435060704711
:1032B0000080014001490860704700008C053042E1
:1032C00000210A4B02685A6242689A621A46D16A21
:1032D00021F0F701D0E902231A4303691A43436935
:1032E0001A431143014AD162704700000080014037
:1032F00000200649086048608860C86048628862AB
:10330000C862034888630020C8637047008001409A
:10331000FF07C00001460020034A526B0A400AB171
:10332000012000E000207047008001400248006852
:1033300000F00300704700000080014010B500F06D
:1033400053FC10BD00210A4A516847F6FF629143C1
:10335000027D83681A4343681A43C3681A430368AB
:103360001A4303691A431143014A51607047000030
:1033700000800140014800687047000080800140E3
:103380000021094B02689A601A46D1686FF30A015E
:10339000D0E901231A43C3681A4303691A4311434E
:1033A000014AD1607047000000800140054909686A
:1033B00021F00301034A11601146096801431160BD
:1033C000704700000080014001490860704700001C
:1033D0008080014070B58CB006460C461546012130
:1033E0000220FFF7D9FC1348FEF70CFF002111481B
:1033F000FEF7FCFE1048019002960395A008049089
:1034000000200590802006908000079080000890A2
:10341000002009904FF400500A9000200B9001A961
:103420000448FEF795FF00210248FEF7DFFE0CB0CE
:1034300070BD0000440402408080014070B5044625
:10344000002516480078032801D1272070BD1348B5
:10345000007838B111480078012803D00F4800786F
:10346000022818D1022C01D32720EFE7E0B2FFF7A2
:10347000B5FE05467DB90A48406820F4C0500849A9
:10348000486008464068A1B240EAC120044948604B
:103490000846406848602846D8E700002800002019
:1034A00000800140F0B5014600200022BE4B1B7891
:1034B00081F85630BD4B1B88A1F85430BC4B1B68BB
:1034C0001A0E93090B70C2F383034B7002F00303CF
:1034D0008B70B74B1B68C3F30742CA70B44B1B8891
:1034E000C3F307220A71B24B1A784A715B681A0E4D
:1034F0001301CB80AE4B5B68C3F30742CB8843EA32
:103500001213CB8002F00F030B72A94B9B88C3F3FD
:103510000722D3094B72C2F380138B72C2F340139C
:10352000CB72C2F300130B7300234B739E4B1B78BB
:103530003BB19D4B1B78012B03D09B4B1B78032B7E
:103540004FD193071B0D0B61994B1A790B6943EA15
:1035500082030B61964B9B681A0E0B6943EA921328
:103560000B61C2F3C2030B7502F007034B75904B5E
:103570009B68C3F3074253098B75C2F38203CB7573
:1035800093075B0F0B768A4B1B89C3F307220B7ED5
:1035900043EAD2130B760B695B1C0024C1E9123499
:1035A0000B7E9B1C012404FA03F3DC17D1E91256AD
:1035B000A5FB037C06FB03C305FB0433C1E91273BF
:1035C0000C7A0123A3400B650024D1E912650B6D31
:1035D000A6FB037C05FB03C306FB0433C1E912739E
:1035E0002EE0714B1B78022B2AD1714B1A7993066E
:1035F0009B0A0B616E4B9B681A0E0B6943EA022310
:103600000B616B4B9B68C3F307420B6913430B6160
:10361000674B1B89C3F307220B695B1C4FF40074D3
:10362000A3FB04464FF480630025A4FB037C06FB48
:1036300003C304FB0533C1E912734FF400730B6538
:10364000C2F3801301F8193F93065B0E4B70584B81
:103650001A7A4B7843EAD2134B7002F07F038B70D7
:10366000534BDB681A0ED309CB70C2F341130B71B5
:10367000C2F382034B7193071B0F8B714C4BDB68BA
:10368000C3F307428B7943EA92138B71C2F3401361
:10369000CB7100230B7202F001034B72444B9B89E8
:1036A000C3F30722D3098B72C2F38013CB72C2F328
:1036B00040130B73C2F300134B73C2F381038B737C
:1036C00002F00303CB733A4B1A7B53080B740123AC
:1036D0004B74384B1B681A0ECA741939354B1B686A
:1036E000C3F307421402CC85324B1B88C3F3072275
:1036F000CB8D1343CB852F4B1A7814060C635B6874
:103700001A0E0B6B43EA02440C632A4B5B68C3F34B
:1037100007420B6B43EA02240C63264B9B88C3F3DE
:1037200007220B6B13430B63224B1A7934235A5431
:10373000204B9B681A0E35235A541E4B9B68C3F3CB
:10374000074214068C631B4B1B89C3F307228B6B48
:1037500043EA02448C63174B1A7A8B6B43EA0224C8
:103760008C63144BDB681A0E8B6B13438B63114B0A
:10377000DB68C3F307423C235B5C43EA12143C233F
:103780005C5413071C0DCC870A4B9B89C3F307229B
:10379000CB8F1343CB87074B1A7B540840235C54D1
:1037A000012441235C54F0BD280000202C0000209F
:1037B000F4010020040200207CB500250024012132
:1037C0003020FFF719FB012140F20240FFF7E4FA35
:1037D0004FF4F850ADF8000018208DF803000320D6
:1037E0008DF8020069463048FEF7C8FF0420ADF8A6
:1037F000000018208DF8030003208DF802006946B0
:103800002A48FEF7BBFF8020ADF8000048208DF865
:10381000030003208DF8020069462448FEF7AEFF3E
:10382000FFF766FD31208DF8040000208DF80500BB
:103830008DF8060001208DF8070001A8FFF7FCF8BD
:1038400000F0E4F8044614B900F036F804461CB958
:103850001748FFF727FE044634B91549B1F854104C
:10386000080400F04FFD04461CB90120FFF7E6FDF7
:1038700004461CB10F480078032812D10C4890F878
:10388000560020B10A4890F85600012801D10A25B7
:1038900000E004252846FFF703FD002000F04AFD64
:1038A000044620467CBD0000001001400014014089
:1038B000180200202800002038B5002401200090C4
:1038C000FFF734FD08B9252038BD4A4800780428A0
:1038D00021D000204849086002204860C02088604C
:1038E0000020C8604FF4806008610846FFF748FD7B
:1038F000FEF7ECFA04460CB12046E5E73F48406984
:103900003F4908603D48806948603C48C06988601C
:103910003A48006AC8603748007858B1354800789E
:10392000012807D033480078062803D031480078B2
:10393000022816D10020304908600320486040204A
:1039400088600020C8604FF4806008610846FFF777
:1039500017FD69460320FEF7FFFA04460CB1204626
:10396000B2E724480078032816D1BDF8000000040F
:103970002149086003204860402088600020C8601A
:103980004FF4806008610846FFF7FAFCFEF79EFAE4
:1039900004460CB1204697E716480078042827D043
:1039A000BDF8000017490860BDF800000004124986
:1039B000086009204860C02088600020C8604FF47B
:1039C000806008610846FFF7DBFCFEF77FFA0446DB
:1039D0000CB1204678E7094840690B490860074860
:1039E000806948600548C06988600448006AC8600A
:1039F000002069E728000020C80100200080014065
:103A0000040200202C000020F40100202DE9F047E2
:103A10000027002400260025A046A146B2206C49BC
:103A200008750020086048608860C8600861084622
:103A3000FFF788FC0320FFF7B9FC0120FFF72AFC01
:103A400000BF12E000206349086048608860C860D9
:103A50004FF4806008610846FFF792FCFEF7EDF92D
:103A6000044604B903E0781CC7B24A2FEADB00BF62
:103A700014B12046BDE8F0874FF4D5705549086071
:103A800008204860402088600020C8604FF48060B3
:103A900008610846FFF774FCFEF7A6FA044624B94D
:103AA00001204D4908704FF08049002049490860C5
:103AB00037204860402088600020C8604FF4806054
:103AC00008610846FFF75CFC3720FEF7CFF9044693
:103AD000002C4BD134E000203E490860372048607C
:103AE000402088600020C8604FF48060086108466C
:103AF000FFF746FC3720FEF7B9F904460CB1204623
:103B0000B8E7364849EA0000324908602920486091
:103B1000402088600020C8604FF48060086108463B
:103B2000FFF72EFCFEF7FCF904460CB12046A1E796
:103B30002B484669012080EAD67080F001086D1C90
:103B4000B8F1000F03D14FF6FF708542C3D34FF693
:103B5000FF70854202D31B2420468BE706F080408D
:103B6000061E32D002201C4908702EE01CE01D48C1
:103B70001849086001204860402088600020C86023
:103B80004FF4806008610846FFF7FAFBFEF7C8F9BA
:103B900004460CB120466DE711484669012080EAD1
:103BA000D67080F001086D1CB8F1000F03D14FF6FC
:103BB000FF708542DBD34FF6FF70854202D31B2492
:103BC000204657E7032004490870204652E70000CA
:103BD000B0010020C8010020280000200000108053
:103BE000008001400080FF8010B54948406B00F420
:103BF000807070B347480078012814D100204649EE
:103C000008600C204860402088600020C8604FF4A5
:103C1000806008610846FFF7B3FB0C20FEF726F929
:103C20003E49087002E000203C4908703848806B2B
:103C300040F48070364988630846C06B4CF23A31D4
:103C400088433349C86301203549087033480078F8
:103C500010BDFFE70220FFF75DFB68B10220FFF710
:103C600013FB2B48C06B4CF23A3188432849C86398
:103C700002202A490870EBE70820FFF74BFB68B1E8
:103C80000820FFF701FB2248C06B4CF23A31884311
:103C90001F49C863042021490870D9E72020FFF795
:103CA00039FB68B12020FFF7EFFA1948C06B4CF2DE
:103CB0003A3188431649C863062018490870C7E797
:103CC0001020FFF727FB68B11020FFF7DDFA10483E
:103CD000C06B4CF23A3188430D49C86305200F4947
:103CE0000870B5E74FF40070FFF714FB70B14FF4A4
:103CF0000070FFF7C9FA0648C06B4CF23A318843AE
:103D00000349C863072005490870A1E700209FE721
:103D10000080014031000020C80100203200002056
:103D2000330000202DE9F84F8146174698460A9C3B
:103D30004FF0000AD3464D464FF0FF36B9F1000F61
:103D400002D12620BDE8F88F00208249C86282484F
:103D50000078022805D10402780A40EAC8574FEAE1
:103D6000682800207D4988604860401E0860012066
:103D700048610020C86008610846FFF7A1FA75484D
:103D8000406900F0007008B10E20DBE7002C21DD57
:103D9000B4F5006F1EDC601E2040D8B9204601F04B
:103DA0007BFE00906E48046010206D494860402002
:103DB00088600020C8604FF4806008610846FFF703
:103DC000DFFA1020FEF752F88246BAF1000F03D056
:103DD0005046B7E72620B5E7009800015F498860A4
:103DE000084644604FF0FF3008600120486102201F
:103DF000C860002008610846FFF762FA584807606B
:103E0000112057494860402088600020C8604FF466
:103E1000806008610846FFF7B3FA1120FEF726F824
:103E20008246BAF1000F01D050468BE74D4800782A
:103E300000285AD1FEF783FD18E04FF40040FFF749
:103E400069FA78B14FF0000B06E042488030006814
:103E500045F82B000BF1010BBBF1080FF5D3203512
:103E6000414E03E00EB904206CE7761E3948406BE2
:103E700040F22A6108400028DFD00820FFF74AFA04
:103E800020B10820FFF700FA04205BE70220FFF7CB
:103E900041FA20B10220FFF7F7F9022052E7202073
:103EA000FFF738FA20B12020FFF7EEF9062049E7A6
:103EB0004FF40070FFF72EFA28B14FF40070FFF7AF
:103EC000E3F907203EE703E0FFF754FA28602D1DD1
:103ED0004FF40010FFF71EFA0028F5D1FEF731FD70
:103EE00040F2FF50FFF7D0F931E01E48007801287A
:103EF0002DD1002221464846FFF76CFA00201B49CD
:103F000008701B4908701B4908701248C06B40F2CA
:103F10002A3108430F49C8630120FFF7CBF900E0BD
:103F2000761E1548006800F4005038B91148007832
:103F300020B90E48007808B9002EF1D10EB904203E
:103F400000E70A48007810B1084890F800A05046F1
:103F5000F8E600000080014028000020DC0100207D
:103F6000C801002030000020FFFF7F003200002049
:103F70003100002033000020000402402DE9FE4FF4
:103F800083460E4691460020029000253446214883
:103F9000007818B1680240EAD45564020BF00300BF
:103FA000F0B14FF0000A18E04FF4007000904FEAB3
:103FB0004A20071945EBE0733A461748FFF7B2FE6F
:103FC00002904FF4007214495846FCF776FB0BF54B
:103FD000007B0AF1010000F0FF0ACA45E4DB16E0AD
:103FE000B9F1010F09D14FF4007022462B46009021
:103FF0005846FFF797FE029009E04FF40070224602
:104000002B46CDE90009584600F008F802900298C6
:10401000BDE8FE8F28000020700200202DE9FF5F20
:1040200017469846DDE90E464FF00009CA464FF0A4
:10403000FF35A949009808600020A849C862A8482F
:104040000078022805D10402780A40EAC8574FEAEE
:1040500068280020A34988604860401E086001204D
:1040600048610020C86008610846FFF729F99B48AD
:10407000406900F0007018B10E2004B0BDE8F09F58
:10408000002C21DDB4F5006F1EDC601E2040D8B985
:10409000204601F001FD83469348046010209249B8
:1040A0004860402088600020C8604FF4806008614C
:1040B0000846FFF765F91020FDF7D8FE8146B9F1F3
:1040C000000F03D04846D8E72620D6E7012E70D946
:1040D00006FB04F0B0F1007F01D32620CDE74FEAC4
:1040E0000B108049886006FB04F048604FF0FF30F9
:1040F0000860012048610220C8600020086108466D
:10410000FFF7DEF8784807601220774948604020C2
:1041100088600020C8604FF4806008610846FFF79F
:104120002FF91220FDF7A2FE8146B9F1000F01D050
:104130004846A2E76D48007800287DD1FEF7FFFBD6
:104140001EE04FF40040FFF7E5F8A8B14FF0000A79
:1041500008E06248803000685F49096841F82A0039
:104160000AF1010ABAF1080FF3D35B480068203066
:10417000594908605E4D03E00DB904207DE76D1ECE
:104180005648406B40F22A3108400028D9D0082018
:10419000FFF7C0F820B10820FFF776F804206CE79D
:1041A0000220FFF7B7F828B10220FFF76DF80220D0
:1041B00063E78EE02020FFF7ADF820B12020FFF765
:1041C00063F8062059E74FF40070FFF7A3F828B111
:1041D0004FF40070FFF758F807204EE709E0FFF7AB
:1041E000C9F83D49096808603B480068001D3A4924
:1041F00008604FF40010FFF78DF80028EFD14FF45E
:104200008070FFF787F820B33548007838B134481C
:104210000078012803D032480078022819D1002004
:10422000314908600C204860402088600020C86048
:104230004FF48060086100E012E00846FFF7A0F844
:104240000C20FDF713FE8146B9F1000F01D048465E
:1042500013E7FEF776FB40F2FF50FFF715F838E062
:1042600022480078012834D106FB04F1002200988E
:10427000FFF7B0F800201F49087001201E490870A0
:1042800000201E4908701548C06B40F22A310843CF
:104290001249C8630846C06A40F00800C86200E0DE
:1042A0006D1E1748006800F4005008B9002DF7D1C2
:1042B0000DB90420E1E600BF1048007818B90D4898
:1042C00000780028F8D00B48007810B1094890F821
:1042D00000904846D1E600003400002000800140F4
:1042E00028000020DC010020C80100203000002050
:1042F000FFFF7F003200002031000020330000204B
:104300000004024010B5044609480460072008492B
:104310004860402088600020C8604FF480600861D9
:104320000846FFF72DF80720FDF7A0FD10BD00009F
:10433000C801002001460020012900D011B9024B1C
:10434000197000E026207047300000202DE9FF5F43
:1043500086B017469846149D0026002005900490CC
:10436000002481460390824602900195DDF818B042
:10437000DDF818B0BBF1000F03D126200AB0BDE86C
:10438000F09F0020C449C862C44988604860401E4C
:104390000860012048610020C86008610846FEF7F7
:1043A0008FFFBD48406900F0007008B10E20E5E7BE
:1043B000BB480078022805D10502780A40EAC857B0
:1043C0004FEA6828002D1FDDB5F5006F1CDC681E64
:1043D0002840C8B9284601F05FFB0590B148056048
:1043E0001020B0494860402088600020C8604FF429
:1043F000806008610846FEF7C3FF1020FDF736FD18
:1044000006461EB13046B9E72620B7E7A648008821
:104410000004A44908600D20486040208860002006
:10442000C8604FF4806008610846FEF7A9FF0D20C0
:10443000FDF71CFD06460EB130469FE796484069E1
:1044400003904FF0FF341BE0641E9748008800047F
:10445000944908600D204860402088600020C860B2
:104460004FF4806008610846FEF78AFF0D20FDF7D3
:10447000FDFC06460EB1304680E787484069039050
:10448000039800F4807008B9002CDDD10CB9292004
:1044900074E784480760182082494860402088609B
:1044A0000020C8604FF4806008610846FEF768FF8E
:1044B0001820FDF7DBFC06460EB130465EE7002013
:1044C0007A4908700598000174498860084645607B
:1044D0004FF0FF300860012048610020C86008618B
:1044E0000846FEF7EDFE4FF0FF34714800780028D3
:1044F0007BD1FEF724FA43E04FF48040FEF70AFF39
:10450000C8B30198A0EB0900202821D20198A0EBA4
:10451000090000F0030020B90198A0EB0900800811
:1045200004E00198A0EB09008008401C02904FF0C5
:10453000000A09E0DBF80000FEF746FF0AF1010A75
:104540000BF1040B09F1040902988245F2D30FE044
:104550004FF0000A05E05BF82A00FEF735FF0AF18C
:10456000010ABAF1080FF6D30BF1200B09F120096B
:104570006FF0404404E0FFE70CB90420FEE6641E3F
:104580004548406B40F21A6108400028B4D008202A
:10459000FEF7C0FE20B10820FEF776FE0420EDE60F
:1045A0000220FEF7B7FE20B10220FEF76DFE0220CA
:1045B000E4E61020FEF7AEFE20B11020FEF764FE08
:1045C0000520DBE64FF40070FEF7A4FE30B14FF497
:1045D0000070FEF759FE0720D0E606E0FEF7B1F9BD
:1045E00040F2FF502C4988633EE0314800780128B2
:1045F0003AD1102229460698FEF7ECFE00202D49FC
:1046000008702A4908702C4908702348C06B40F292
:104610001A3108432049C8630846C06A40F00800C0
:10462000C86200E0641E2548006800F4005008B924
:10463000002CF7D11CB9FFF7BFF804209EE64FF01D
:10464000FF3400E0641E1C48007820B91948007847
:1046500008B9002CF6D10CB904208FE61548007873
:1046600010B11448007889E640F2FF50FEF70CFEC6
:1046700004A8FEF769F9064603E004A8FEF764F90A
:1046800006463EB99DF810000728F6D09DF81000A8
:104690000628F2D0304671E600800140DC0100209F
:1046A00028000020C80100202C000020310000203C
:1046B00030000020320000203300002000040240BF
:1046C0002DE9FE4F064689469246002002900025BD
:1046D0004C462148007818B1680240EAD45564027B
:1046E00006F00300F0B14FF0000B18E04FF4007239
:1046F00031461A48FBF7E1FF4FF4007000904FEA93
:104700004B20071945EBE0733A461448FFF71EFEAD
:10471000029006F500760BF1010000F0FF0BD34587
:10472000E4DB16E0BAF1010F09D14FF40070224624
:104730002B4600903046FFF709FE029009E04FF447
:10474000007022462B46CDE9000A304600F008F8FA
:1047500002900298BDE8FE8F280000207002002021
:104760002DE9FF5F84B0DDE91247002600200390A9
:104770000290002580468146019007FB04FBDDF88E
:1047800010A0DDF810A0BAF1000F03D1262008B068
:10479000BDE8F09F0020D849C862D84988604860C9
:1047A000401E0860012048610020C860086108467A
:1047B000FEF786FDD048406900F0007008B10E2079
:1047C000E5E7CF480078022808D10402DDE90601B8
:1047D000400A40EAC1504912CDE90601002C1FDD14
:1047E000B4F5006F1CDC601E2040C8B9204601F003
:1047F00053F90390C34804601020C2494860402028
:1048000088600020C8604FF4806008610846FEF7A9
:10481000B7FD1020FDF72AFB06461EB13046B6E76D
:104820002620B4E7012F6FD907FB04F0B0F1007F19
:1048300001D32620ABE7B248007838B1B048007801
:10484000012803D0AE48007802282DD1AE48008858
:104850000004AC4908603720486040208860002090
:10486000C8604FF4806008610846FEF789FD372074
:10487000FDF7FCFA06460EB1304688E7A14807600E
:104880001720A0494860402088600020C8604FF48D
:10489000806008610846FEF773FD1720FDF7E6FA11
:1048A00006460EB1304672E7964906980860192010
:1048B0004860402088600020C8604FF48060086134
:1048C0000846FEF75DFD1920FDF7D0FA06460EB149
:1048D00030465CE7039800018849886007FB04F0D4
:1048E00048604FF0FF300860012048610020C86038
:1048F00008610846FEF7E4FC84480078002871D17E
:10490000451EFEF71CF840E0DEE07B48406B00F4FB
:104910008040A8B3ABEB080020281ED2ABEB080008
:1049200000F0030018B9ABEB0800800803E0ABEB24
:1049300008008008401C01904FF0000909E0DAF8F7
:104940000000FEF741FD09F101090AF1040A08F12E
:10495000040801988145F2D30FE04FF0000905E00B
:104960005AF82900FEF730FD09F10109B9F1080FE5
:10497000F6D30AF1200A08F120086FF0404504E060
:10498000FFE70DB9042002E76D1E5B48406B40F263
:104990001A3108400028B8D00820FEF7BBFC20B12F
:1049A0000820FEF771FC0420F1E60220FEF7B2FCBD
:1049B00020B10220FEF768FC0220E8E61020FEF796
:1049C000A9FC20B11020FEF75FFC0520DFE64FF4C4
:1049D0000070FEF79FFC30B14FF40070FEF754FCFE
:1049E0000720D4E62CE04FF48070FEF793FC00B370
:1049F0004348007838B142480078012803D0404845
:104A00000078022815D100203E4908600C2048603B
:104A1000402088600020C8604FF48060086108462C
:104A2000FEF7AEFC0C20FDF721FA06460EB130462B
:104A3000ADE6FDF786FF40F2FF50FEF725FC43E0B0
:104A40003248007801283FD107FB04F11022049876
:104A5000FEF7C0FC00202E49087001202D49087087
:104A600000202D4908702448C06B40F21A310843D9
:104A70002149C8630846C06A40F00800C8624FF088
:104A8000FF3500E06D1E2548006800F4005008B9AD
:104A9000002DF7D11DB9FEF78FFE042077E64FF009
:104AA000FF3500E06D1E1C48007820B918480078DA
:104AB00008B9002DF6D10DB9042068E61448007835
:104AC00010B11348007862E640F2FF50FEF7DCFBBD
:104AD00002A8FDF739FF064603E002A8FDF734FF00
:104AE00006463EB99DF808000728F6D09DF8080054
:104AF0000628F2D030464AE600800140DC01002062
:104B000028000020C80100202C00002030000020D8
:104B10003200002031000020330000200004024059
:104B2000704710B500F002F810BD00000CB5002071
:104B3000019000903348006840F4803031490860AB
:104B400000BF3048006800F4003000900198401C1D
:104B50000190009818B90198B0F5A06FF1D12948DB
:104B6000006800F4003010B10120009001E0002046
:104B700000900098012843D12348006840F01000BD
:104B8000214908600846006820F0030008600846D4
:104B9000006840F0020008601A48406819494860FF
:104BA0000846406848600846406840F480604860B5
:104BB0000846406820F47C1048600846406840F48D
:104BC000E81048600846006840F08070086000BF48
:104BD0000C48006800F000700028F9D009484068CF
:104BE00020F00300074948600846406840F0020092
:104BF000486000BF0348406800F00C000828F9D165
:104C00000CBD00000010024000200240042808D122
:104C10004FF0E021096941F004014FF0E0221161F9
:104C200007E04FF0E021096921F004014FF0E02294
:104C3000116170477047000010B51348006840F0DC
:104C400001001149086008464068104908400E49B3
:104C50004860084600680E4908400B49086008464D
:104C6000006820F4802008600846406820F4FE00B8
:104C700048604FF41F008860FFF753FF4FF000605B
:104C80000449086010BD0000001002400000FFF859
:104C9000FFFFF6FE08ED00E010B50121084800F026
:104CA0001BF958B10121064800F004F905480068D5
:104CB00008B9012000E000200249086010BD000092
:104CC000000400409401234210B52C48007800F005
:104CD000800000284CD10121294800F0FDF8D0B116
:104CE0002648007800F04000A8B12448007800F081
:104CF0003F003F280AD12148007840F080001F493A
:104D000008704FF6FF701F49088004E01B480078C8
:104D1000401C1A4908700221194800F0DDF838B328
:104D20001648007800F0400078B11448007840F050
:104D3000800012490870124800F0CBF81149088031
:104D400000210F4800F0E2F812E000200B49087043
:104D50000C49088000210A4800F0E1F80748007873
:104D600040F04000054908700221054800F0CEF8E7
:104D70000321034800F09EF810BD00003800002019
:104D8000000C00403A00002010B50121064800F058
:104D9000A3F820B10548017805A0FBF7C7FA012167
:104DA000014800F087F810BD001000403E000020D0
:104DB000737465703A25646670730D0A0000000014
:104DC0007FB505460C4601211020FDF7F5FFADF833
:104DD0000850ADF804400020ADF80A00ADF8060018
:104DE00001A90E4800F09EF8012241210B4800F075
:104DF00084F80121094800F060F836208DF80000A1
:104E000004208DF8010003208DF8020001208DF8A8
:104E100003006846FDF710FE7FBD00000010004053
:104E200010B50121094800F057F868B1084800881A
:104E300040F40040064908800121044800F03AF897
:104E40000021024800F039F810BD000000140040B5
:104E50003C0000207FB505460C4601212020FDF7CF
:104E6000ABFFADF80450ADF800400020ADF80600EF
:104E7000ADF8020069460E4800F054F801221146D0
:104E80000B4800F03AF80121094800F016F83720E5
:104E90008DF80C0000208DF80D0002208DF80E001A
:104EA00001208DF80F0003A8FDF7C6FD7FBD0000AF
:104EB00000140040CA430282704721B1028842F0C8
:104EC0000102028004E002884FF6FE731A4002805D
:104ED00070470146888E704730B502460020002397
:104EE0000024158A05EA0103958905EA010413B136
:104EF0000CB1012000E0002030BD1AB183890B43C2
:104F0000838102E083898B43838170470A460021B5
:104F1000018C4FF6FD731940114301847047818461
:104F200070470000002202881D4B98420ED01D4B96
:104F300098420BD0B0F1804F08D01B4B984205D05F
:104F40001A4B984202D01A4B984204D14FF68F73F5
:104F50001A404B881A43174B984207D0164B984279
:104F600004D04FF6FF431A40CB881A4302808B8847
:104F700083850B8803850A4B98420BD0094B9842D6
:104F800008D00E4B984205D00D4B984202D00D4BE5
:104F9000984201D10B7A0386012383827047000077
:104FA000002C014000340140000400400008004093
:104FB000000C004000100040001400400040014080
:104FC000004401400048014010B540F225511D4801
:104FD00000F0F5F810B31B4800F0ACF9C4B21A4861
:104FE000008800F40040C8B91748008800F48040E9
:104FF00060B10A2C03D000201349088020E0124839
:10500000008840F400401049088019E00D2C06D1BA
:105010000D48008840F480400B49088010E00A48A1
:105020000088C0F30D0009490C5407480088401C53
:105030000549088008460088C72801DD002008804F
:1050400010BD00000038014024000020E8000020CE
:1050500010B540F225511A4800F0B1F800282ED0C2
:10506000174800F067F9C4B21648008820F44040A1
:1050700041F27071884214DA00211348FFF74FFFA4
:105080001048008800F4004018B901210E48FFF7CD
:1050900014FF0C490888411C0A4A11800B490C5422
:1050A0000DE00848008820F44041084A08A0FBF7BA
:1050B0003DF90448008840F480400249088010BD52
:1050C000004800403C000020001400407004002014
:1050D00075736172743320627566666572206F76CF
:1050E0006572666C6F773A25642C25730D0A000093
:1050F00021B1828942F40052828104E082894DF616
:10510000FF731A408281704710B5044620488442DC
:1051100009D101218803FDF77FFE00214FF4804073
:10512000FDF77AFE32E01B48844209D10121480490
:10513000FDF752FE00214FF40030FDF74DFE25E053
:105140001548844209D101218804FDF745FE00215C
:105150004FF48020FDF740FE18E01048844209D14A
:105160000121C804FDF738FE00214FF40020FDF7AF
:1051700033FE0BE00A48844208D101210805FDF7FF
:105180002BFE00214FF48010FDF726FE10BD00001D
:10519000003801400044004000480040004C0040FE
:1051A0000050004002460020B1F5007F00D100BF52
:1051B00013880B400BB1012000E00020704770B550
:1051C0000246002400230025002040F66A16B14262
:1051D00000D100BFC1F3421501F01F03012606FAFA
:1051E00003F3012D02D19689334006E0022D02D14E
:1051F000168A334001E0968A33400C12012606FAE3
:1052000004F41688344013B10CB1012000E00020F2
:1052100070BDF0B50346002400260025002040F6AE
:105220006A17B94200D100BF1846C1F3421401F019
:105230001F06012707FA06F5012C01D10C3004E006
:10524000022C01D1103000E014301AB107682F434E
:10525000076002E00768AF430760F0BD2DE9F04743
:1052600086B005460E460024A24600BFA146002790
:10527000B08900B100BF2F462C8A4CF6FF70044065
:10528000F08804432C82AC894EF6F3100440B088B9
:1052900031890843718908430443AC81AC8A4FF6D5
:1052A000FF400440B0890443AC8201A8FDF7C4FD6F
:1052B0001F48874202D1DDF810A001E0DDF80CA004
:1052C000A88900F4004040B10AEBCA0000EB0A10C4
:1052D00031684900B0FBF1F807E00AEBCA0000EBC7
:1052E0000A1031688900B0FBF1F86420B8FBF0F0D7
:1052F00004012009642101FB1089A88900F4004001
:1053000040B1322000EBC900B0FBF1F000F0070023
:10531000044308E0322000EB09106421B0FBF1F0F7
:1053200000F00F0004432C8106B0BDE8F0870000B8
:105330000038014001468888C0F308007047C1F377
:1053400008028280704700BFFEE7490050EAC12092
:1053500018BF04204A0D18BF40F0010040F2FF7250
:10536000B2EB515F08BF40F00200012808BF0520E2
:10537000704730380A2801D201207047002070475A
:1053800000BF7047F8B504460D46002600200B49C3
:105390000988C1F30D010A4A505410462B46224693
:1053A00000900848016808A0FAF7C0FF29460448A1
:1053B000FBF752F906463046F8BD00003C000020DD
:1053C00070040020E4000020282564292825732982
:1053D00064656275673A3A25737C7C25730D0A0013
:1053E0002DE9F04105460E46144666480068401C0B
:1053F000644908600027002063490880294663A0AB
:1054000002F0FCFD002E5FD0002CFCD05DDD53E0EF
:105410000A2000F01BFD5C48008800F48040002852
:1054200022D031465BA0FFF7ADFF18B100205649EE
:10543000088045E05AA157A0FFF7A4FF28B100203B
:10544000514908800320BDE8F08157A151A0FFF722
:1054500099FF20B100204C4908800420F3E7002088
:10546000494908800220EEE74748008800F40040E0
:1054700010B34548008820F4004043490880314675
:1054800044A0FFF77FFF18B100203F49088017E0D4
:1054900043A140A0FFF776FF20B100203A490880E1
:1054A0000320D0E740A13BA0FFF76CFF20B1002014
:1054B000354908800420C6E7601E80B2041EA7D1CB
:1054C00000BF002C58D1012756E0002C54DA51E0DF
:1054D0000A2000F0BBFC2C48008800F4804008B390
:1054E00031462CA0FFF74EFF18B100202649088056
:1054F00041E02BA127A0FFF745FF20B10020224962
:10550000088003209FE728A122A0FFF73BFF20B1DE
:1055100000201D490880042095E700201A490880D2
:10552000022090E71848008800F4004010B31648A5
:10553000008820F4004014490880314615A0FFF788
:1055400021FF18B100201049088014E014A111A017
:10555000FFF718FF20B100200B490880032072E7F5
:1055600011A10CA0FFF70EFF20B100200649088012
:10557000042068E7ACE700BF0020034908803846F4
:1055800061E70000E40000203C00002025730D0AC4
:105590000000000053454E442044415441000000A7
:1055A0004552524F520000004641494C0000000055
:1055B0002DE9F04106460F4615461C46684800682E
:1055C000401C674908604FF00008002065490880CA
:1055D000394665A0FAF7AAFE3946304602F036FD94
:1055E000002D60D0002CFCD05EDD53E00A2000F0DE
:1055F0002DFC5C48008800F48040002822D0294619
:1056000060A0FFF7BFFE18B100205649088045E0B2
:105610005FA15CA0FFF7B6FE28B1002051490880C9
:105620000320BDE8F0815CA156A0FFF7ABFE20B1DE
:1056300000204C4908800420F3E7002049490880F5
:105640000220EEE74748008800F4004010B34548C8
:10565000008820F4004043490880294649A0FFF70C
:1056600091FE18B100203F49088017E048A145A0ED
:10567000FFF788FE20B100203A4908800320D0E7D8
:1056800045A140A0FFF77EFE20B1002035490880EB
:105690000420C6E7601E80B2041EA7D100BF002C04
:1056A00059D14FF0010856E0002C54DA51E00A209D
:1056B00000F0CCFB2B48008800F4804008B329465A
:1056C00030A0FFF75FFE18B100202649088041E0B6
:1056D0002FA12CA0FFF756FE20B100202149088001
:1056E00003209EE72CA127A0FFF74CFE20B100204D
:1056F0001C490880042094E700201A4908800220F1
:105700008FE71848008800F4004010B3154800885F
:1057100020F400401349088029461AA0FFF732FE02
:1057200018B100200F49088014E019A115A0FFF757
:1057300029FE20B100200B490880032071E716A143
:1057400010A0FFF71FFE20B10020064908800420AA
:1057500067E7ACE700BF002002490880404660E7E9
:10576000E40000203C000020282564206279746554
:10577000732973656E642064617461207475726E40
:105780000D0A000053454E4420444154410000009E
:105790004552524F520000004641494C0000000063
:1057A0002DE9F04F9DB00746884691469A46DDF8B0
:1057B00098B04FF47A701C9000201B904C462DE05E
:1057C000A4F57A7001900198002802DD4FF47A75F3
:1057D00000E025462B463A4613A102A8FAF7B2FD8F
:1057E00000BF00BF5A4615A102A8FFF7F9FD002827
:1057F000F8D11B9908EB01005B4652462946FFF79A
:10580000D7FE0646142000F021FB032EE9D0042E1B
:10581000E7D01B9828441B90641B00BF002CCFD1FD
:105820001DB0BDE8F08F000041542B434950534553
:105830004E443D25642C25640D0A00004F4B0000AA
:105840002DE9F04F93B082460E4617469846DDE9A3
:105850001CB9002542244222002102A802F062F96C
:105860002820CDF81600CDF81A80CDF81EB0012101
:10587000ADF822101021ADF824100321CDF8261028
:10588000DDF81E10DDF81A205143BDF8242001FB7D
:1058900002F0C11700EB5171CA10CDF82A2044F66E
:1058A0004250ADF80800DDF82A002044CDF80A0087
:1058B000CDF812404FF47840CDF83E004FF4FC6133
:1058C000CDF842101F21CDF84610B9F1010F05D1D6
:1058D00003223946304600F015FF0546B9F1000FA6
:1058E00001D0042D05D112223946304600F00AFFBE
:1058F00005467DB9094B224602A9304601F01AF847
:10590000054641F2883006A3224602A9009050467F
:10591000FFF746FF284613B0BDE8F08F9400002043
:105920004F4B000070B504460D4600202071401E0C
:10593000E0622946204601F0E9FF08B1032070BD6E
:1059400094F82E1294F82F0241EA00204AF65521CD
:10595000884201D00220F2E794F86900010694F829
:10596000680041EA004194F8670041EA002094F899
:105970006610084320F07F400D49884201D1002085
:10598000DDE794F88500010694F8840041EA0041BF
:1059900094F8830041EA002094F88210084320F034
:1059A0007F400349884201D10020C8E70120C6E7B3
:1059B00046415400024600E0521C107810B11078A5
:1059C0008842F9D11078704770B503460D46586A81
:1059D000021D680A1E68B678B0FBF6F400BF02CA62
:1059E00009B9002070BD8C4200D202E0641A121D79
:1059F000F5E700BF10682044F4E70246891E5069AD
:105A0000801E884201D8002070479378906A01FB7D
:105A10000300F9E72DE9F04104460B46187820F021
:105A20004000401E00EB800101EBC005002601276D
:105A300000BF1848805D185C1649895D1944497893
:105A400040EA012887B1404601F078F80746FF2D6B
:105A500007D229466D1C34F8110001F06FF8B842E6
:105A600008D00020BDE8F0814FF6FF70804501D0DE
:105A70000020F7E7701C06460D28DAD3187800F0EE
:105A8000400028B127B134F8150008B10020E9E73B
:105A90000120E7E7388300080146002002E04910B2
:105AA000421CD0B20129FAD170472DE9F0470446D3
:105AB0008946B9F1000F06D1E76817B16069B842AD
:105AC00015D8012713E04946204601F019FB064688
:105AD000022E02D20120BDE8F087701C08B93046C2
