:020000040800F2
:10000000283900207D020008F12000089D2000080A
:10001000ED200008131C00086B2C000800000000F5
:10002000000000000000000000000000652400083F
:10003000311E000800000000792100087925000821
:10004000970200089702000897020008970200082C
:100050009702000897020008351E00089702000862
:1000600097020008691E00089D1E000897020008FC
:1000700097020008970200089702000897020008FC
:1000800097020008970200089702000897020008EC
:10009000970200089702000897020008D11E000886
:1000A00097020008970200089702000897020008CC
:1000B00097020008DD250008970200089702000853
:1000C00097020008970200089702000897020008AC
:1000D00097020008D5280008970200085D2900084B
:1000E000970200089702000897020008970200088C
:1000F000970200089702000897020008970200087C
:1001000097020008F52200080D2600089702000853
:100110009702000897020008CD260008052700086E
:10012000970200089702000897020008970200084B
:1001300000F002F800F090F80AA090E8000C824469
:100140008344AAF10107DA4501D100F085F8AFF246
:10015000090EBAE80F0013F0010F18BFFB1A43F0A5
:10016000010318473038000050380000103A24BF0F
:1001700078C878C1FAD8520724BF30C830C144BF0C
:1001800004680C607047000000230024002500264E
:10019000103A28BF78C1FBD8520728BF30C148BFEA
:1001A0000B6070476E2900F0B082702900F01B844C
:1001B000662903F06B83652903F06883672903F0E0
:1001C0006583612903F0648303681B0A28BF41F03B
:1001D0008001692900F0D280642900F0CF80752960
:1001E00000F0CC806F2900F0A883782900F0E78325
:1001F000E92900F04383E42900F04083F52900F069
:100200003D83EF2900F0A583F82900F0E683036819
:10021000DB0928BF41F08001632900F0B282732915
:1002200000F0B782E32900F0C587F32900F0CA8700
:10023000002070471FB501F01BF8040000200021CA
:1002400003F00EFB401C60600020002103F0F2FA76
:10025000E0601FBD10B510BD00F0DCFF1146FFF7D8
:10026000E9FF03F01DF801F0B9F803B4FFF7F2FF5E
:1002700003BC02F017FD000001F0C6FC09488047EE
:1002800009480047FEE7FEE7FEE7FEE7FEE7FEE778
:10029000FEE7FEE7FEE7FEE704480549054A064B90
:1002A000704700007D250008310100082833002038
:1002B000283900202835002028350020704700000C
:1002C0001CB50C46064B7B4469460090204600F066
:1002D00036FA04460020694600F044FA20461CBD68
:1002E0009B0400000FB4044910B503AA029800F063
:1002F00055FA10BC5DF814FB180000200FB41CB5B3
:10030000084B06AA7B4469460090059800F017FA4E
:1003100004460020694600F025FA20461CBC5DF822
:1003200014FB00005D04000070B50C460546012A70
:1003300005D02878800600D5EA69002302E0012371
:1003400005E05B1C934202D2E05C0028F9D1A86969
:10035000E618C01AA861286A18442862284600F0E6
:1003600042F904E0D5E9012114F8010B9047B442A9
:10037000F8D3284600F04DF970BD00002DE9F0419A
:100380000646002410687529314616A510D000F0E5
:1003900051F9002802DA404213A507E031688A07C4
:1003A00001D512A502E0490704D511A5012401E0F9
:1003B00000F049F900210A2206F1240709E0B0FB08
:1003C000F2FCB0FBF2F302FB1C003030785418460C
:1003D000491C0028F3D123462A463046BDE8F041A7
:1003E00000F03AB9000000002D0000002B000000D2
:1003F000200000002DE9F05F894604464FF0000A16
:10040000DFF874B1FB44C0F820A02046E1688847BB
:10041000002874D0252806D0D4E901219047206A0D
:10042000401C2062F1E700265F462046E1688847CD
:100430002028054607DB312D05D2781910F8200C4D
:1004400008B10643F1E7B00701D526F00406C4F869
:100450001CA00027C4F818A02A2D09D0284602F0B5
:100460001AFC38B304EB8708303DC8F8185019E07F
:1004700059F8041B204604EB87029161E168884724
:10048000012F054618D1E069002820DA26F0200661
:100490001DE0D8F8180000EB800005EB4000303874
:1004A000C8F818002046E1688847054602F0F3FBCB
:1004B0000028EED1012F0AD02E2D08D12046E16868
:1004C00088477F1C0546022F46F02006C4DBA06942
:1004D000002803DA404246F00106A061F00701D08F
:1004E00026F010066C2D0BD0682D09D04C2D39D07C
:1004F0006A2D35D0742D35D07A2D33D016E038E002
:10050000E1682F4620468847B842054609D16C2F3E
:1005100026D04FF48060E1680643204688470546B0
:1005200004E06C2F1AD04FF4807006430DB3A5F190
:100530004100192802D8203546F400664A4629466B
:10054000204626604E46FFF72DFE80B101280BD0D5
:10055000F61D26F0070000F1080956E74020E4E701
:100560008020D8E70020D6E706F104094DE72846A9
:1005700052E7206ABDE8F09F8C34000030B5054694
:100580000B462A4613F8014B12F8010B08B1A042A2
:10059000F8D01CB1002802D06D1CF1E7284630BD10
:1005A00010B5431C02E010F8011B71B18107FAD1AC
:1005B0004FF0013202C88C1A8C4314EAC211F9D0F0
:1005C000C01A0A0603D0C01E10BDC01A10BD0A040E
:1005D00001D0801E10BD0902FCD0401E10BD704726
:1005E00070477047704770B5044685690068C1065A
:1005F00001D5302600E02026C00707D070BDD4E921
:10060000012130469047206A401C20626D1EF6D5BD
:1006100070BD70B5044685690078C00707D170BD0C
:10062000D4E9012120209047206A401C20626D1EE1
:10063000F6D570BD09684A0501D540B27047C905B5
:10064000FCD500B2704709684A0501D5C0B27047B1
:10065000C905FCD580B270472DE9F0470D46994693
:100660009246044600F124080168880604D5E06932
:1006700021F01001216000E00120A84201DD471BAC
:1006800000E00027A1697A1902EB0900081AA061AD
:100690002078C00602D42046FFF7A5FF002608E018
:1006A000D4E901211AF806009047206A401C761C04
:1006B00020624E45F4DB2078C0060AD52046FFF7BD
:1006C00092FF06E0D4E9012130209047206A401CC7
:1006D0002062381EA7F10107F4DC07E0D4E901210C
:1006E00018F805009047206A401C2062281EA5F1DA
:1006F0000105F3DC2046FFF78CFF2078000602D5C9
:100700000220BDE8F0870120FBE711680268006A5B
:10071000530501D508700AE0D30501D5088006E02D
:10072000130603D5C217C1E9000200E008600120EA
:100730007047000001694A1C02610878704700B5E3
:100740008FB0CDE901310021059105497944CDE90A
:10075000031011466846FFF74DFE0FB000BD0000C4
:10076000E5FFFFFF0A6802F8010B0A60704710B549
:10077000436913B1AFF3008001E0FFF7D5FD01201D
:1007800010BD127800F124010A7000224A70012283
:10079000EDE711684FF0FF32E9E70000074B70B555
:1007A0000D467B44FFF7CBFF0446284600F00EFDC4
:1007B00010B14FF0FF3070BD204670BD6F2A0000B1
:1007C0002DE9FF5F15468A460446DFF8AC80F84401
:1007D0000027D8E900103E46CDE9001010E03AF8B5
:1007E00016106A4602A800F0F5FC411C07D02178DB
:1007F000890603D5E269391891420DD80744761C61
:100800002078800602D5E069B84205DDAE42E6DB1D
:100810003AF816000028E2D1A069C01BA06120466A
:10082000FFF7E1FED8E90010CDE90010002017E045
:100830003AF818106A4602A800F0CCFCB0F1FF3F6D
:1008400081460BD000250DF1080B05E0D4E901210C
:100850001BF8050090476D1C4D45F7D308F10100CA
:10086000B0428046E4DB206A384420622046FFF72D
:10087000D0FEBDE8FF9F0000D63000002DE9F0411A
:100880008046D21D22F007020025D2E90002F52998
:1008900015A614D0011E72F1000106DA0023D0EB78
:1008A000030063EB020211A608E0D8F800108B07E2
:1008B00001D50FA602E0490701D50EA60125114674
:1008C000002408F1240704E000F098F830323A558B
:1008D000641C50EA0102F7D12B46324621464046BD
:1008E000BDE8F041FFF7B8BE000000002D00000099
:1008F0002B0000002000000030B4002100F124048F
:1009000008E002F00705D208303542EA4372DB08FE
:100910006554491C52EA0305F3D10468002310A270
:10092000250707D5A40600D421B1C46901230DA26F
:10093000641EC46130BCFFF78FBE10B5044621466B
:100940001068FFF780FE02462046BDE810400023F5
:10095000D2E7D21D22F00701D1E90023CCE7000045
:100960000000000030000000F0B40D4601880905C9
:1009700002D5214C7C4402E01F4C7C440E34002103
:1009800000F1240608E002F00F071209E75D42EAD1
:1009900003721B097754491C52EA0307F3D102780A
:1009A0000023120704D5702D06D009B1022311349B
:1009B0002246F0BCFFF750BE01231034F8E770B5B3
:1009C00004460D4621461068FFF73DFE02462946C3
:1009D0002046BDE870400023C6E7D21D22F0070381
:1009E000D3E90023C0E70368126843F020030360E3
:1009F0000823C3610023B7E7382F000030B5B0F1FA
:100A00000A024FEA900E71F100034EEA817EB0EBCC
:100A10000E0061EB91014FEA101E4EEA017E10EBD1
:100A20000E0041EB11114FEA102E4EEA016E10EB51
:100A30000E0041EB11214FEA104E4EEA014E10EB31
:100A40000E0041EB1141401841F100014FEAD00086
:100A500040EA41704FEAD10110EB80054FEA810472
:100A600044EA907444EB01046D1944EB0404521BF6
:100A7000A3414FF0000348BF0A3200D530BD401CEF
:100A800041F1000130BD70472DE9FF4F0C461E4675
:100A90004FF0FF378BB0D2E90001DDF860800A909B
:100AA0008A46C1F30A5505B93D46002108464FF074
:100AB0000000BAF1000F00F4400005DA00EB8000FE
:100AC0004FF4400101EA50004FEA9059B9F1010F8B
:100AD00000DDB9460A9850EA4A000ED044F610509C
:100AE000A5F2FF3545432F14B8F1000F1ED0754213
:100AF000291E1EDDC9F100021CE0B8F1010F4FF004
:100B0000000001D0302103E0F24305E02154401CF5
:100B1000B042FBDB30460022002121540B99C1F882
:100B20000880C1E900200FB0BDE8F08FBD1B6D1C2F
:100B3000DEE74A4600DA694206A800F0DDFB06ABB4
:100B400093E8070003AB83E8070050460A9900F0DA
:100B500093FC8DE80700A0F500501F380090039823
:100B6000002D0ADD42F21F014A460844002303A972
:100B70000390684600F0FCFE09E0A0F500504A46EC
:100B80001F38002303A90390684600F006FF8DE894
:100B900007000004000C03D04FF0FF30410800E0D4
:100BA0001046B8F1000F03D00022009215461EE057
:100BB000751E05D4FFF722FF303262556D1EF9D540
:100BC000B3460122084302D000227F1C04E02078B3
:100BD000302801D100227F1E002A099784D01DE011
:100BE000112D07DAFFF70AFF303262556D1C50EA0B
:100BF0000102F5D1084302D00098C8B10EE00021EF
:100C0000681E05E0235C625C63542254401E491C4C
:100C10008142F7DBAB46A81B401E0990002004F878
:100C20000B000B98099AC0F80880C0E9002B7AE7FE
:100C300011264FF0000857E72DE9F04F884604468B
:100C4000D21D22F0070191B0D1E90001CDE90A01DE
:100C500002F00DF802460B98C00F01D02D2007E0DE
:100C60002068810701D52B2002E0202101EAC00085
:100C7000032A099001D0072A05DB03464146204696
:100C800000F0FAFA0BE12078800601D5E06900E077
:100C90000620B8F1650F814606D0B8F1660F18D06E
:100CA000B8F1670F70D131E00020B9F1110F009059
:100CB00001DB112301E009F101030AAA01A90CA833
:100CC000FFF7E2FEDDE90C70002609F1010583461D
:100CD00047E001204B4600904FF000470AAA01A9C7
:100CE0000CA8FFF7D1FEDDE90DB00C995D4600269A
:100CF00010B909F101000D18B9EB050003D4C0F1DA
:100D0000FF3609F10105A5EB09002BE0B9F1010F50
:100D100001DA4FF001090020B9F1110F00904846A7
:100D200001DD112300E003460AAA01A90CA8FFF780
:100D3000ABFEDDE90C704D460026834620780007A7
:100D40000AD4AB4500DA5D4601A8012D04DD411946
:100D500011F8011C302907D04F4502DA17F1040FB2
:100D600004DA012082460FE06D1EEEE7002F02DC60
:100D7000ED1B3E4403E0781CA84200DD7D1CB81B3F
:100D800000F1010A4FF000472078000703D4AA457C
:100D900001DB4FF0FF3A0021B7F1004F0DF143089E
:100DA0008DF8431024D002202B23002F01DA7F423C
:100DB0002D230A21021EA0F1010000DC5FB197FB88
:100DC000F1FC97FBF1F201FB1C7C17460CF1300C97
:100DD00008F801CDEEE7A8F10100037021880905AC
:100DE00001D5452100E06521A0F1010800F8011CB2
:100DF00009980FA9A1EB0807FF1D00B101204119B7
:100E000001EBEA70A1693844081A401EA0612078FD
:100E1000C00602D42046FFF7E6FB099828B1D4E9C2
:100E200001219047206A401C20622078C00622D50C
:100E30002046FFF7D8FB1EE0002E04DBB34502DDA1
:100E400001A8805D00E03020D4E901219047206AAC
:100E5000401C2062761CAAF101005FEA000A0AD158
:100E600000F006FAC0680168405CD4E901219047AF
:100E7000206A401C2062281EA5F10105DCDC07E089
:100E8000D4E9012118F8010B9047206A401C206228
:100E9000381EA7F10107F3DC2046FFF7BAFB032059
:100EA00011B041E62DE9F04F04460D46D21D22F067
:100EB000070089B0D0E900974846394601F0D7FECF
:100EC0000246F80F01D02D2307E02068810701D5E5
:100ED0002B2302E0202101EAC0038DF820300BB162
:100EE000012000E00020032A824601D0072A04DB0B
:100EF0002946204600F0C0F93FE12078800601D461
:100F00000D2500E0E569C7F30A560D2D49DA0021E9
:100F10004FEA175B08464FF00000002F00F4400036
:100F200007DA00EB80004FF4400100EBD07001EADB
:100F300060008115012901DD4FF0FF3100224FEAE9
:100F4000850CBCF1180F06D31346ACF118004FF016
:100F50008052C24003E04FF4801323FA0CF30CF1EB
:100F60000C0CBCF1200F04D3ACF1200C09FA0CF0EE
:100F700001E007FA0CF000294FF0004801DD18B934
:100F80000FE00ED140450CD319EB02095F4121B9A6
:100F9000404502D19F4329EA0209BBEB175F00D00D
:100FA000761C2088000502D57B48784402E07A4808
:100FB0007844193808AA302302F80A30037C0AF171
:100FC0000101002E0AF1020A53546A4602DC4FF076
:100FD000300101E04FF031014FF001088DF80010B1
:100FE00002D0A6F2FF3603E059EA470100D06B4E6B
:100FF000002D02DC2178090704D54FF002082E21CC
:101000008DF80110C44600210BE0C7F303433F01F4
:10101000C35C491C6D1E02F80830052908F101085F
:1010200001DA002DF1DC00210CE000EB1973491C02
:101030001B786D1E082902F808304FEA091908F1DB
:10104000010801DA002DF0DC21688B0602D516E0DC
:10105000A8F10108E04505DD02EB080313F8013CA7
:10106000302BF5D0B8F1000F09DD02EB080313F8BF
:10107000013C2E2B03D1090701D4A8F10108002D52
:1010800005DD3E2102F808106D1E08F10108407CC4
:10109000002E02F8080008F1010804DA2D2076423B
:1010A00002F8080002E02B2002F808000A214FF4A1
:1010B0007A70864208F101080BDB96FBF0F33033BF
:1010C00002F8083096FBF0F308F1010800FB136604
:1010D00001E0642E0CDB642096FBF0F3303302F861
:1010E000083096FBF0F308F1010800FB136601E0FD
:1010F0000A2E06DB96FBF1F0303002F8080008F10A
:10110000010896FBF1F001FB1060303002F8080096
:10111000A16908F1010808EB050202EB0A00081AB0
:10112000A0612078C00602D42046FFF75CFA216A4D
:1011300008AE01EB0A00206204E0D4E9012116F8B0
:10114000010B9047BAF1010AF7D22078C00602D508
:101150002046FFF748FA6E4609E016F8010B3E28D4
:101160000FD0D4E901219047206A401C2062B8F1D9
:101170000108F2D22046FFF74CFA09B00320BDE87F
:10118000F08F206A2844206203E0D4E90121302056
:1011900090476D1EEBD3F8E73D29000002FCFFFFEE
:1011A00010B5436913B1AFF3008001E0FFF708FB0E
:1011B000012010BD128800F1240182840022C28423
:1011C0000122EDE711684FF0FF32E9E7007B00F004
:1011D0008000704770B516460C46054600F040F892
:1011E000036893F80101012806D0FF2C0FD8185D81
:1011F00068B101202C7070BDD3F80701324621463A
:1012000003F2071303442846BDE8704018474FF027
:10121000FF3070BD754600F0EBF8AE46050069463C
:10122000534620F00700854618B020B5FFF734F884
:10123000BDE820404FF000064FF000074FF00008D7
:101240004FF0000B21F00701AC46ACE8C009ACE858
:10125000C009ACE8C009ACE8C0098D467047000081
:1012600010B500F005F8001D10BD00BFF525000009
:1012700000487047E43200202DE9F0411F46044643
:1012800003260168072A01F4006004DB08B116A5F3
:1012900005E016A503E008B115A500E015A521F0AD
:1012A00010002060A069C01EA0610FB1401EA061A7
:1012B0002046FFF798F94FB1D4E90121384690470D
:1012C000206A401C2062C01C206206E0206AFAE707
:1012D000D4E9012115F8010B9047761EF8D220467B
:1012E000FFF797F9BDE8F0814E414E006E616E0048
:1012F000494E4600696E66002DE9F0478146164664
:101300008AB0354878440DC88DE80D0032487844DD
:10131000801C03AC0DC884E80D0041F69B300844E6
:10132000372190FBF1F290FBF1F5A5F1800501FB6F
:1013300012041B3C02D56442012000E00020DFF8CB
:1013400098A080460027FA44AAF1BE0A0EE0E00702
:101350000AD03246684607EB470101230AEB8101B8
:1013600000F01BFB8DE8070064107F1C002CEED101
:10137000194F7F44AE3F19E0E80715D007EB041082
:101380000DF1180A90E80E008AE80E00C068F042DD
:1013900001D1981908903246012306A903A800F04C
:1013A000FCFA03AB83E807006D10641C002DE3D149
:1013B0004FF0010332466946B8F1000F03A802D08E
:1013C00000F0D6FA01E000F0E8FAC9E90001C9F836
:1013D00008200AB0BDE8F0877426000010B5044666
:1013E000AFF300802046BDE81040FEF73EBF00008E
:1013F00000487047C43200204FF0013C50F8042BE5
:1014000051F8043B9A4221D1A2EB0C03934313EA17
:10141000CC1317D150F8042B51F8043B9A4215D144
:10142000A2EB0C03934313EACC130BD150F8042B1B
:1014300051F8043B9A4209D1A2EB0C03934313EAFF
:10144000CC13DBD04FF00000704700BFD01A01BAB8
:10145000B1FA81F101F0180122FA01F0CB40C1F19B
:101460002001DBB2C0B2C01A2CFA01F3D11A9143A9
:1014700011EAC311E6D170475FEA400C08BF91F052
:10148000000F4FEA8C234FEAC12243EA51514FEA41
:101490001C5018BF00F5F0404FEA300018BF41F073
:1014A00000415FEA6C5C00F02980BCF1FF3F08BF9F
:1014B00040F080407047130C06BF12044FF0100C30
:1014C0004FF0000C130E04BF12020CF1080C130FA6
:1014D00004BF12010CF1040C930F04BF92000CF135
:1014E000020CD30F04BF52000CF1010C11464FF057
:1014F0000002A0F11F00A0EB0C00704711F0004F9C
:1015000008BF704731F000413FF4D5AF0B0C06BF68
:1015100009044FF0100C4FF0000C0B0E04BF090231
:101520000CF1080C0B0F04BF09010CF1040C8B0F1C
:1015300004BF89000CF1020CCB0F04BF49000CF171
:10154000010CCCF12003A0EB0C0022FA03F302FA09
:101550000CF241EA030100F10100704720F07F4CDA
:1015600080EA030023F07F47ACEB070303F57C53CD
:1015700000F0004003F1FF032DE980494FEA154BCD
:1015800009B44FEA144325EA0B4E24EA03480FF24C
:10159000042606EB132749083E785FEA320203FB74
:1015A0000667C7F5000707FB06F64FEA54374FEA10
:1015B000D64606F1020607FB066CCCF1005C4FEA4A
:1015C0001C472CEA074C07FB06F40CFB06F504EB62
:1015D00015464FEA961634BF00204FF000404FEA00
:1015E000D13706FB07FC4FEA1C4C0CFB0BF7D21B58
:1015F00003FB0CF761EB07010CFB0EF7B0EB0740A8
:1016000072EB17420CFB08F734BFA2EB0742B2EBB8
:10161000074261EB17414FEA0C444FEA910706FB82
:1016200007FC4FEA1C4C0CFB0BF7B0EBC74072EB0E
:10163000573203FB0CF734BFA2EBC742B2EBC742F1
:1016400061EB57310CFB0EF7B0EBC70072EB577232
:101650000CFB08F734BFA2EBC702B2EBC70261EB89
:101660005771039F4FEA816141EA921104EBCC0468
:101670004FEAD1374FEA826206FB07FC42EA90123A
:101680004FEA80604FEA1C4C0CFB0BF7D21B03FBAC
:101690000CF761EB07010CFB0EF7B0EB074072EBA8
:1016A00017420CFB08F734BFA2EB0742B2EB07422C
:1016B00061EB17414FEA8C554FEA910704EB9C24EC
:1016C00006FB07FC4FEA1C4C0CFB0BF7B0EBC740CA
:1016D00072EB573203FB0CF734BFA2EBC742B2EBFD
:1016E000C74261EB57310CFB0EF7B0EBC70072EB52
:1016F00057720CFB08F734BFA2EBC702B2EBC7026C
:1017000061EB577115EB4C254FEA816141EA92116B
:101710004FEA82624FEAD13742EA901206FB07FC99
:1017200044F100044FEA80604FEA1C4C0CFB0BF7BD
:10173000D21B03FB0CF761EB07010CFB0EF7B0EBC0
:10174000074072EB17420CFB08F734BFA2EB0742CD
:10175000B2EB074261EB174115EB1C154FEA8131E3
:1017600041EA92414FEA823242EA90424FEA8030A7
:101770004FEA0C7644F1000448EA03434EEA0B4872
:101780004FF0000EB2EB080C71EB030724BF62466A
:1017900039464EEB0E0E4FF0000B001852414941F6
:1017A0004BEB0B0BB2EB080C71EB03077BF1000B5F
:1017B00024BF624639464EEB0E0E4FF0000B001868
:1017C000524149414BEB0B0BB2EB080C71EB030799
:1017D0007BF1000B24BF624639464EEB0E0E51EAF8
:1017E000020718BF46F0010616EB0E7655F100020F
:1017F00054F1000103D5BDE88901BDE80088BDE8CA
:101800008901BDE80048B619524141EB0101A3F13D
:101810000103704780807F7E7D7C7B7A7978777644
:1018200076757473727171706F6E6E6D6C6C6B6ABD
:101830006A6968686766666564646363626161605B
:10184000605F5F5E5E5D5D5C5C5B5B5A5A595958D8
:101850005857575656555555545453535252525142
:10186000515050504F4F4F4E4E4D4D4D4C4C4C4B98
:101870004B4B4A4A4A4949494848484747474746DF
:10188000464645454544444444434343434242421B
:1018900042414141002B9C4630D477002BD01CB5EF
:1018A0004FEA370703B44FF010004FF01001BAF1C0
:1018B000000F06D0BCF1000FDCBF40F0080040F084
:1018C00008014FF000000FBCBDE810400BF1010B08
:1018D000BBF1010F08BF5FEA170722BF12F1010237
:1018E00011F101014FF0004143F1000300F000400D
:1018F00043EA00007047F9D35708D0E746EA0646A6
:1019000013F1400F4FEA16461FDD13F1200FDFBF22
:1019100016430A46002120335B42BED0C3F12007A4
:1019200046EA064602FA07F74FEA164646EA07066F
:10193000C3F1200722FA03F201FA07F721FA03F1B3
:101940004FF0000342EA0702A7E746EA020646EA2A
:1019500006464FEA164646EA0106BCBF46EA064678
:10196000360C4FF000034FF000024FF0000194E7F7
:101970002DE9804C9A46934670B491E8380007C828
:1019800031EA400C48BF34EA430C03D5FFF7E6FDCB
:10199000FFF780FFF0BCBDE8008C2DE9804C9A4633
:1019A000934670B491E8380007C810F0804F08BF24
:1019B00013F0804F03D100F005F8FFF76BFFF0BC88
:1019C000BDE8008C20F07F4780EA030023F07F4CC5
:1019D00007EB0C03A3F57C5300F00040A3F1FE03DA
:1019E00092F0000F00F0B38095F0000F00F07780C8
:1019F0002DE901494FEA11404FEA144621EA004817
:101A000000FB06FC24EA064708FB06F607FB08F87D
:101A100000FB07F718EB06484CEB164C4FEA124B4D
:101A200018EB07484FEA15464CEB174022EA0B4EDD
:101A30000BFB06FC25EA06470EFB06F607FB0EFE2F
:101A40000BFB07F71EEB064E4CEB164C4FF0000657
:101A50001EEB074E4CEB174B18EB0B0840F1000048
:101A600018EB0E0B58EB000840F100008F1A4FF0F6
:101A700000013CBFC943661B14BFB5EB040C002139
:101A80003CBFC943F61B4FEA17444EEA8E0E27EAC5
:101A900004454FEA1C4704FB07622CEA074C05FB90
:101AA00007F70CFB05F604FB0CFC16EB074642EBB4
:101AB000174216EB0C4642EB1C421BEB060658EB9A
:101AC0000202414146EA9E0601D5BDE80189B619E8
:101AD000524141EB0101A3F10103BDE801894FEA45
:101AE00014454FEA114724EA054621EA074C05FB55
:101AF00007F406FB07F70CFB06F105FB0CFC11EBEA
:101B0000074144EB17444FEA124711EB0C4144EBF9
:101B10001C4422EA074C05FB07F206FB07F70CFB07
:101B200006F605FB0CFC16EB074642EB174216EBDC
:101B30000C4642EB1C456A1854F1000148BF70473F
:101B4000B619524141EB0101A3F10103704795F031
:101B5000000F37D04FEA11424FEA144721EA0246FC
:101B600024EA074C02FB07F106FB07F70CFB06F41F
:101B700002FB0CFC14EB074441EB17414FEA1547FD
:101B800014EB0C4441EB1C4125EA074C02FB07F522
:101B900006FB07F70CFB06F602FB0CFC16EB0746F0
:101BA00045EB174516EB0C4645EB1C42121951F15B
:101BB000000148BF7047B619524141EB0101A3F142
:101BC000010370474FEA14454FEA114724EA0546DE
:101BD00021EA074C05FB07F106FB07F70CFB06F2B1
:101BE0004FF0000605FB0CFC12EB074241EB1741DE
:101BF00012EB0C4251EB1C4148BF7047921841EB6D
:101C00000101A3F10103704740F2010CC2F2000C84
:101C1000604700BFFEE7000070B5044605E01548C8
:101C2000456B05F0450000B100E0F8E700BF042077
:101C300000F054FB20B1042000F04AFB032070BDEB
:101C4000012000F04BFB20B1012000F041FB0120FE
:101C5000F5E708480069A04201D01020EFE740F204
:101C6000FF50044988630846406908210840C0B213
:101C7000E5E700000080014010B5002415484068E9
:101C800020F47040134948600846406840F4004022
:101C9000486004E0601CC4B2012001F095FA0E48CF
:101CA000006808B1642CF5DB642C01DB012010BD59
:101CB000002404E0601CC4B2012001F085FA06484B
:101CC000006808B9642CF5DB642C01DB0120EEE729
:101CD0000020ECE7002001402C01244208B501213E
:101CE000080200F06BFA4FF40060ADF8000010201D
:101CF0008DF8030003208DF802006946064800F0C5
:101D000037F94FF40061044800F0C6F900F070F8AC
:101D1000FFF7B2FF08BD00000020014010B500240D
:101D200004E0601CC4B2012001F04EFA0D480068C6
:101D300008B1642CF5DB002404E0601CC4B201206F
:101D400001F042FA0748006808B9642CF5DB282046
:101D500001F03AFA0348006808B1012010BD0020E4
:101D6000FCE700002C01244270B50024002506E0A9
:101D70006006040EFFF7D2FF0443681CC5B2082DAD
:101D8000F6DB204670BD7CB505460E4600F030F807
:101D9000FFF772FF38BB002405E0FFF7E5FF0DF801
:101DA0000400601CC4B2052CF7DB9DF800009DF810
:101DB000011008449DF8021008449DF803100844DF
:101DC0009DF80410884210D19DF801009DF8001084
:101DD00040EA012030809DF803009DF8021040EA9F
:101DE0000120288001E001207CBD0020FCE70000EC
:101DF00010B50C48406820F470400A494860084615
:101E0000406840F4405048600020074908601420B2
:101E100001F0B4F901200549C1F8AC011E2001F020
:101E2000D3F910BD00200140AC012442000024423F
:101E30007047000010B50A2001F0A0F90121084800
:101E400000F021F9012807D10648006808B90120EF
:101E500000E0002003490860012000F06FF810BD89
:101E600000080140A081214210B50A2001F086F946
:101E70000821084800F007F938B90748006808B990
:101E8000012000E0002004490860082000F056F816
:101E900010BD0000001801409401234210B50A2033
:101EA00001F06CF91021084800F0EDF838B9074846
:101EB000006808B9012000E00020044908601020F3
:101EC00000F03CF810BD0000001801409481214250
:101ED00010B54FF4807000F037F801281ED1124879
:101EE000007878B900201149086001201049C1F834
:101EF00098011049C1F88C010B480078401C0A4930
:101F000008700BE008480078012807D100200A4932
:101F1000086005480078401C034908704FF4807041
:101F200000F00CF810BD00003C0000209881224217
:101F300000802242008021428C81214201490860B8
:101F40007047000014040140014600200022074BA6
:101F50001B6803EA0102054B14331B680B4013B1E5
:101F60000AB1012000E00020704700000004014099
:101F70002DE9F04102460025002600200023002420
:101F8000002791F803C00CF00F0591F803C00CF086
:101F9000100CBCF1000F03D091F802C04CEA05050B
:101FA00091F800C0BCF1000F31D0146800202BE084
:101FB0004FF0010C0CFA00F3B1F800C00CEA030674
:101FC0009E4220D183004FF00F0C0CFA03F7BC4364
:101FD00005FA03FC4CEA040491F803C0BCF1280F95
:101FE00006D14FF0010C0CFA00FCC2F814C00AE054
:101FF00091F803C0BCF1480F05D14FF0010C0CFA69
:1020000000FCC2F810C0401C0828D1D31460B1F8FD
:1020100000C0BCF1FF0F34DD546800202EE000F159
:10202000080C4FF0010808FA0CF3B1F800C00CEAF4
:1020300003069E4221D183004FF00F0C0CFA03F7E8
:10204000BC4305FA03FC4CEA040491F803C0BCF15C
:10205000280F05D100F1080C08FA0CF8C2F814801A
:1020600091F803C0BCF1480F07D100F1080C4FF004
:10207000010808FA0CF8C2F81080401C0828CED3DA
:102080005460BDE8F0810246002093680B400BB11C
:10209000012000E0002070470161704700BFFEE7AB
:1020A00008B50121482000F089F82020ADF8000093
:1020B00010208DF8030003208DF8020069460948BE
:1020C000FFF756FF20210748FFF7E6FF2020ADF875
:1020D000000069460448FFF74BFF20210248FFF744
:1020E000DBFF08BD000C01400018014000BFFEE707
:1020F0007047000070B5002100230F22C47804B39C
:10210000154C246804F4E064C4F5E064210AC1F1CC
:102110000403CA40447804FA03F18478144021434C
:1021200009010E4C0678A155047804F01F0501241E
:10213000AC4005786D11AD0005F1E025C5F8004112
:1021400009E0047804F01F050124AC40044D067832
:10215000761145F8264070BD0CED00E000E400E08B
:1021600080E100E002490143024A1160704700002B
:102170000000FA050CED00E07047000029B1064AA6
:10218000D2690243044BDA6104E0034AD269824314
:10219000014BDA61704700000010024029B1064A85
:1021A00012690243044B1A6104E0034A1269824334
:1021B000014B1A61704700000010024029B1064A25
:1021C00092690243044B9A6104E0034A9269824394
:1021D000014B9A61704700000010024029B1064A85
:1021E000D2680243044BDA6004E0034AD2688243B7
:1021F000014BDA60704700000010024030B500214A
:102200000022002400232D4D6D6805F00C0121B142
:10221000042905D0082923D105E0294D056022E0D5
:10222000274D05601FE0254D6D6805F47012234DA4
:102230006D6805F48034022505EB92421CB9214DEE
:10224000554305600BE01D4D6D6805F400351DB16B
:102250001C4D5543056002E0194D5543056002E0F1
:10226000174D056000BF00BF144D6D6805F0F0010B
:102270000909154D6B5C0568DD4045600F4D6D68C3
:1022800005F4E061090A104D6B5C4568DD4085602E
:102290000A4D6D6805F46051C90A0B4D6B5C4568C9
:1022A000DD40C560054D6D6805F44041890B074D63
:1022B0006B5CC568B5FBF3F5056130BD00100240ED
:1022C00000127A0000093D003D0000204D00002072
:1022D00001498863704700000080014001460020EA
:1022E000034A526B0A400AB1012000E00020704707
:1022F0000080014010B500F017F810BD0021094B17
:1023000002689A601A46D1686FF30A01D0E9012386
:102310001A43C3681A4303691A431143014AD1603F
:10232000704700000080014010B54948406B00F440
:10233000807070B347480078012814D100204649C6
:1023400008600C204860402088600020C8604FF47E
:10235000806008610846FFF7D1FF0C20FFF75CFCA6
:102360003E49087002E000203C4908703848806B04
:1023700040F48070364988630846C06B4CF23A31AD
:1023800088433349C86301203549087033480078D1
:1023900010BDFFE70220FFF7A1FF68B10220FFF7A1
:1023A00097FF2B48C06B4CF23A3188432849C863E9
:1023B00002202A490870EBE70820FFF78FFF68B179
:1023C0000820FFF785FF2248C06B4CF23A31884362
:1023D0001F49C863042021490870D9E72020FFF76E
:1023E0007DFF68B12020FFF773FF1948C06B4CF2E6
:1023F0003A3188431649C863062018490870C7E770
:102400001020FFF76BFF68B11020FFF761FF104845
:10241000C06B4CF23A3188430D49C86305200F491F
:102420000870B5E74FF40070FFF758FF70B14FF434
:102430000070FFF74DFF0648C06B4CF23A318843FD
:102440000349C863072005490870A1E700209FE7FA
:102450000080014029000020380100202A000020CF
:102460002B000020704710B500F002F810BD0000EE
:102470000CB50020019000903348006840F4803093
:102480003149086000BF3048006800F40030009017
:102490000198401C0190009818B90198B0F5A06F00
:1024A000F1D12948006800F4003010B101200090FB
:1024B00001E0002000900098012843D123480068E3
:1024C00040F01000214908600846006820F0030031
:1024D00008600846006840F0020008601A4840683A
:1024E000194948600846406848600846406840F41A
:1024F000806048600846406820F47C1048600846C8
:10250000406840F4E81048600846006840F0807079
:10251000086000BF0C48006800F000700028F9D087
:102520000948406820F003000749486008464068B1
:1025300040F00200486000BF0348406800F00C0013
:102540000828F9D10CBD0000001002400020024014
:10255000042808D14FF0E021096941F004014FF04F
:10256000E022116107E04FF0E021096921F0040148
:102570004FF0E022116170477047000010B513481A
:10258000006840F0010011490860084640681049A1
:1025900008400E494860084600680E4908400B494B
:1025A00008600846006820F48020086008464068FB
:1025B00020F4FE0048604FF41F008860FFF753FFCF
:1025C0004FF000600449086010BD00000010024098
:1025D0000000FFF8FFFFF6FE08ED00E010B5012156
:1025E000084800F0FFF858B10121064800F0E8F86B
:1025F0000548006808B9012000E000200249086091
:1026000010BD0000000400409401234210B52C4886
:10261000007800F0800000284CD10121294800F00A
:10262000E1F8D0B12648007800F04000A8B1244875
:10263000007800F03F003F280AD12148007840F0A0
:1026400080001F4908704FF6FF701F49088004E0A2
:102650001B480078401C1A4908700221194800F0F4
:10266000C1F838B31648007800F0400078B114483B
:10267000007840F0800012490870124800F0AFF86E
:102680001149088000210F4800F0C6F812E0002030
:102690000B4908700C49088000210A4800F0C5F871
:1026A0000748007840F040000549087002210548BD
:1026B00000F0B2F80321034800F082F810BD0000DA
:1026C00030000020000C00403200002010B5012135
:1026D000064800F087F820B10548017805A0FDF70D
:1026E00001FE0121014800F06BF810BD0010004010
:1026F0003C000020737465703A25646670730D0A9F
:102700000000000010B50DA0FDF7ECFD01210F4801
:1027100000F068F880B10EA0FDF7E4FD0F480088D6
:1027200040F400400D4908800021084800F04BF8B3
:102730000121064800F044F810BD00006E6F7720BC
:10274000696E2054494D370D0A0000000014004006
:1027500073657420666C61670D0A00003400002008
:102760007FB505460C4601212020FFF707FDADF897
:102770000450ADF800400020ADF80600ADF80200AE
:1027800069460E4800F054F8012211460B4800F04B
:102790003AF80121094800F016F837208DF80C00AE
:1027A00000208DF80D0002208DF80E0001208DF81C
:1027B0000F0003A8FFF79EFC7FBD0000001400403F
:1027C000CA430282704721B1028842F001020280AE
:1027D00004E002884FF6FE731A40028070470146FB
:1027E000888E704730B50246002000230024158AE9
:1027F00005EA0103958905EA010413B10CB1012032
:1028000000E0002030BD1AB183890B43838102E0D0
:1028100083898B43838170470A460021018C4FF6E0
:10282000FD73194011430184704781847047000093
:10283000002202881D4B98420ED01D4B98420BD0AF
:10284000B0F1804F08D01B4B984205D01A4B9842EC
:1028500002D01A4B984204D14FF68F731A404B881E
:102860001A43174B984207D0164B984204D04FF6A4
:10287000FF431A40CB881A4302808B8883850B88DC
:1028800003850A4B98420BD0094B984208D00E4B57
:10289000984205D00D4B984202D00D4B984201D181
:1028A0000B7A03860123838270470000002C0140CD
:1028B000003401400004004000080040000C0040CB
:1028C000001000400014004000400140004401405E
:1028D0000048014010B540F225511D4800F001F9B3
:1028E00010B31B4800F0B8F9C4B21A48008800F4CD
:1028F0000040C8B91748008800F4804060B10A2C35
:1029000003D000201349088020E01248008840F4DA
:1029100000401049088019E00D2C06D10D480088B0
:1029200040F480400B49088010E00A480088C0F35A
:102930000D0009490C5407480088401C05490880CF
:1029400008460088C72801DD0020088010BD00006F
:10295000003801401C0000205800002010B540F253
:1029600025511E4800F0BDF8002835D001201C4933
:1029700008601A4800F070F9C4B22146194800F006
:1029800070F91948008820F4404041F27071884283
:1029900014DA00211548FFF748FF1348008800F4B7
:1029A000004018B901211148FFF70DFF0E490888B2
:1029B000411C0D4A11800E490C540DE00A48008854
:1029C00020F440410A4A0BA0FDF78CFC0648008821
:1029D00040F480400449088010BD000000480040D9
:1029E000380000200038014034000020001400406E
:1029F000E00300207573617274332062756666654A
:102A000072206F766572666C6F773A25642C257339
:102A10000D0A000021B1828942F40052828104E053
:102A200082894DF6FF731A408281704710B50446C3
:102A30002048844209D101218803FFF7CFFB002100
:102A40004FF48040FFF7CAFB32E01B48844209D1B3
:102A500001214804FFF7A2FB00214FF40030FFF7EB
:102A60009DFB25E01548844209D101218804FFF728
:102A700095FB00214FF48020FFF790FB18E01048F1
:102A8000844209D10121C804FFF788FB00214FF4DB
:102A90000020FFF783FB0BE00A48844208D10121A4
:102AA0000805FFF77BFB00214FF48010FFF776FB52
:102AB00010BD0000003801400044004000480040C4
:102AC000004C00400050004002460020B1F5007F5D
:102AD00000D100BF13880B400BB1012000E00020A3
:102AE000704770B50246002400230025002040F600
:102AF0006A16B14200D100BFC1F3421501F01F03B5
:102B0000012606FA03F3012D02D19689334006E02F
:102B1000022D02D1168A334001E0968A33400C120E
:102B2000012606FA04F41688344013B10CB10120D2
:102B300000E0002070BDF0B503460024002600250B
:102B4000002040F66A17B94200D100BF1846C1F311
:102B5000421401F01F06012707FA06F5012C01D1E6
:102B60000C3004E0022C01D1103000E014301AB116
:102B700007682F43076002E00768AF430760F0BDB6
:102B80002DE9F04786B005460E460024A24600BF58
:102B9000A1460027B08900B100BF2F462C8A4CF611
:102BA000FF700440F08804432C82AC894EF6F31089
:102BB0000440B08831890843718908430443AC81DB
:102BC000AC8A4FF6FF400440B0890443AC8201A8B0
:102BD000FFF714FB1F48874202D1DDF810A001E087
:102BE000DDF80CA0A88900F4004040B10AEBCA004F
:102BF00000EB0A1031684900B0FBF1F807E00AEB7E
:102C0000CA0000EB0A1031688900B0FBF1F86420BB
:102C1000B8FBF0F004012009642101FB1089A889A8
:102C200000F4004040B1322000EBC900B0FBF1F0ED
:102C300000F00700044308E0322000EB0910642193
:102C4000B0FBF1F000F00F0004432C8106B0BDE8AA
:102C5000F08700000038014001468888C0F3080072
:102C60007047C1F308028280704700BFFEE7490049
:102C700050EAC12018BF04204A0D18BF40F00100DF
:102C800040F2FF72B2EB515F08BF40F00200012832
:102C900008BF0520704730380A2801D2012070474C
:102CA0000020704700BF704770B506460C460025EF
:102CB000002006490988C1F30D01054A50542146F8
:102CC0001046FDF75BFC0546284670BD3400002029
:102CD000E00300202DE9F04105460E461446664803
:102CE0000068401C64490860002700206349088090
:102CF000294663A000F09AFC002E5FD0002CFCD087
:102D00005DDD53E00A2000F039FA5C48008800F4E9
:102D10008040002822D031465BA0FFF7C5FF18B1E4
:102D200000205649088045E05AA157A0FFF7BCFF94
:102D300028B10020514908800320BDE8F08157A147
:102D400051A0FFF7B1FF20B100204C4908800420BA
:102D5000F3E70020494908800220EEE74748008851
:102D600000F4004010B34548008820F40040434977
:102D70000880314644A0FFF797FF18B100203F4973
:102D8000088017E043A140A0FFF78EFF20B100208C
:102D90003A4908800320D0E740A13BA0FFF784FF19
:102DA00020B10020354908800420C6E7601E00B22B
:102DB000041EA7D100BF002C58D1012756E0002CDB
:102DC00054DA51E00A2000F0D9F92C48008800F4C8
:102DD000804008B331462CA0FFF766FF18B10020F1
:102DE0002649088041E02BA127A0FFF75DFF20B115
:102DF00000202249088003209FE728A122A0FFF796
:102E000053FF20B100201D490880042095E70020D1
:102E10001A490880022090E71848008800F4004012
:102E200010B31648008820F4004014490880314649
:102E300015A0FFF739FF18B100201049088014E0F1
:102E400014A111A0FFF730FF20B100200B4908802A
:102E5000032072E711A10CA0FFF726FF20B100208C
:102E600006490880042068E7ACE700BF002003495A
:102E70000880384661E7000054000020340000203C
:102E800025730D0A0000000053454E442044415470
:102E9000410000004552524F520000004641494C4B
:102EA000000000002DE9F04106460F4615461C467D
:102EB00068480068401C674908604FF0000800201F
:102EC00065490880394665A0FDF70CFA3946304659
:102ED00000F0D4FB002D60D0002CFCD05EDD53E070
:102EE0000A2000F04BF95C48008800F4804000287C
:102EF00022D0294660A0FFF7D7FE18B1002056491E
:102F0000088045E05FA15CA0FFF7CEFE28B100205D
:102F1000514908800320BDE8F0815CA156A0FFF76D
:102F2000C3FE20B100204C4908800420F3E70020B4
:102F3000494908800220EEE74748008800F4004035
:102F400010B34548008820F40040434908802946D2
:102F500049A0FFF7A9FE18B100203F49088017E0FB
:102F600048A145A0FFF7A0FE20B100203A49088003
:102F70000320D0E745A140A0FFF796FE20B1002036
:102F8000354908800420C6E7601E00B2041EA7D1A0
:102F900000BF002C59D14FF0010856E0002C54DA44
:102FA00051E00A2000F0EAF82B48008800F4804045
:102FB00008B3294630A0FFF777FE18B10020264954
:102FC000088041E02FA12CA0FFF76EFE20B1002069
:102FD0002149088003209EE72CA127A0FFF764FE6B
:102FE00020B100201C490880042094E700201A49E1
:102FF000088002208FE71848008800F4004010B3D2
:103000001548008820F400401349088029461AA07A
:10301000FFF74AFE18B100200F49088014E019A1FB
:1030200015A0FFF741FE20B100200B4908800320C6
:1030300071E716A110A0FFF737FE20B10020064966
:103040000880042067E7ACE700BF00200249088041
:10305000404660E75400002034000020282564200A
:1030600062797465732973656E642064617461208C
:103070007475726E0D0A000053454E44204441544D
:10308000410000004552524F520000004641494C59
:10309000000000002DE9F04F9BB00746884692469D
:1030A0009B464FF400601A904FF00009444627E019
:1030B000A4F5006000900098002802DD4FF4006540
:1030C00000E025462A4611A101A8FDF717F900BF27
:1030D0004FF0FF3211A101A8FFF7FCFD07EB09003B
:1030E0005B4652462946FFF7DDFE0646142000F0F7
:1030F00045F8032EECD0042EEAD0A944641B00BF8F
:10310000002CD5D11BB0BDE8F08F000041542B43FB
:10311000495053454E443D25640D0A004F4B000075
:1031200030B50446002504E04FF47A7000F026F82C
:103130006D1CA542F8D330BD10B56FF00400FFF749
:1031400007FA0A4800680A49B0FBF1F0094908701B
:103150000846007800EB4001C1EBC0104FF6FF714C
:1031600001EAC0000449088010BD000000000020F2
:1031700000127A0014000020160000200146114AB7
:1031800012884A434FF0E0235A6100229A611A469E
:10319000126942F001021A6100BF4FF0E02210698B
:1031A00000F001021AB100F48032002AF5D04FF08D
:1031B000E022126922F001024FF0E0231A6100229E
:1031C0009A617047160000200146114A12784A435E
:1031D0004FF0E0235A6100229A611A46126942F0C8
:1031E00001021A6100BF4FF0E022106900F00102F5
:1031F0001AB100F48032002AF5D04FF0E0221269B3
:1032000022F001024FF0E0231A6100229A61704718
:103210001400002000BF054A128802F04002002A74
:10322000F9D0C2B2014B1B1D1A8070470038014013
:1032300010B54FF480510248FEF725FF10BD000085
:103240000018014010B54FF480410248FEF71BFF03
:1032500010BD00000018014001460A0601F47F433A
:1032600042EA032201F47F0342EA132242EA116098
:103270007047000008B501214020FEF79FFF4FF482
:103280008050ADF8000028208DF8030003208DF851
:10329000020069460148FEF76BFE08BD00180140B8
:1032A00090B08DA592A695A7FFF746FF4FF4A060BA
:1032B000FEF758FF4FF4E13000F004FAFEF7F0FE9D
:1032C000FFF7D8FF00F09CF905E091A0FDF70AF8A0
:1032D000C820FFF753FFFEF701FD0028F5D14FF49A
:1032E000E13000F03FFA4FF0FF3200218DA0FFF7F0
:1032F000F1FC0520FFF714FF4FF0FF328CA18DA0E9
:10330000FFF7E8FC4FF0FF3289A18CA0FFF7E2FC49
:103310004FF0FF3286A18CA0FFF7DCFC0520FFF701
:10332000FFFE4FF0FF3282A190A0FFF7D3FC2846AA
:10333000FDF736F904462046FFF78EFF01904FF067
:10334000FF327BA193A0FFF7C5FC642378A2042180
:1033500001A8FFF7A7FD642375A221462846FFF7C1
:1033600099FE3046FDF71CF904462046FFF774FF2E
:1033700001904FF0FF326EA186A0FFF7ABFC6423F3
:103380006BA2042101A8FFF78DFD642368A22146EA
:103390003046FFF77FFE1420FFF7F0FE3846FDF7BA
:1033A000FFF804462046FFF757FF01904FF0FF3229
:1033B0005FA178A0FFF78EFC64235DA2042101A821
:1033C000FFF770FD64235AA221463846FFF762FEDC
:1033D0001420FFF7D3FE7DE002A903A8FEF7D3FC7B
:1033E000FFF726FF8046FFF72DFF8146BDF80C0052
:1033F000C3B2020A6BA10BA8FCF780FFBDF808005E
:10340000C3B2020A67A106A8FCF778FF424667A18B
:1034100005A8FCF773FF4A4664A104A8FCF76EFFF9
:1034200004A805AB06AA0BA9009061A0FCF75AFFFF
:1034300064223FA157A0FFF74DFC24242046FFF74C
:103440000BFF019064233AA2042101A8FFF72AFD93
:103450001420FFF793FE4FF0FF3235A15DA0FFF778
:1034600039FC642332A211210BA8FFF71BFD1420A5
:10347000FFF784FE4FF0FF322DA156A0FFF72AFC84
:1034800064232BA2112106A8FFF70CFD1420FFF7DF
:1034900075FE4FF0FF3226A152A0FFF71BFC6423FC
:1034A00023A2012105A8FFF7FDFC1420FFF766FE0B
:1034B0004FF0FF321EA14BA0FFF70CFC64231CA2AF
:1034C000012104A8FFF7EEFC0520FFF729FE49A023
:1034D000FCF708FF80E7000079616F78756574611B
:1034E0006F27732073746D33326631303300000000
:1034F00073746D3332463130330000006E757320C3
:1035000063656E7472616C206C69627261727900BD
:10351000646874313120696E6974206661696C6514
:10352000640D0A0041542B524553544F524500003C
:103530004F4B0000415445300000000041542B43E4
:10354000574D4F44453D310041542B43574A41505C
:103550003D224855415745492D31435232505A2258
:103560002C223836343433383630220041542B4341
:10357000495053544152543D22544350222C22343A
:10358000372E3130382E3137302E323037222C362C
:103590003636360041542B43495053454E443D3452
:1035A0000000000025642E25640000002564000052
:1035B00074656D703D25732C68756D693D25732CA0
:1035C0006C696768743D25732C736D6F6B653D2561
:1035D000730D0A0041542B43495053454E443D312D
:1035E0003700000041542B43495053454E443D3170
:1035F000000000006E657874207475726E0D0A000C
:1036000008B501214020FEF7D9FD4FF48040ADF808
:10361000000028208DF8030003208DF80200694681
:103620000148FEF7A5FC08BD001801400FB438B5ED
:1036300005A800900F48009A0499FCF741FE00206D
:1036400000900C48FCF7ACFF85B200240DE000BFF1
:1036500040210948FFF738FA0028F9D00548015DF4
:103660000548FFF7FEFA601C84B2AC42EFDB38BCC1
:103670005DF814FB511B0020004800402DE9F0418B
:1036800007460E46002503E0785D0C4948556D1C41
:10369000B542F9D3B04600240CE000BF40210848F1
:1036A000FFF712FA0028F9D00448015D0448FFF73B
:1036B000D8FA641C4445F0D3BDE8F081511B0020CA
:1036C0000048004010B586B00446012144F20400D1
:1036D000FEF774FD4FF40070ADF8140003208DF870
:1036E000160018208DF8170005A91C48FEF740FCAD
:1036F0004FF48060ADF8140004208DF8170005A980
:103700001648FEF735FC25208DF8000003208DF8C3
:1037100001008DF8020001208DF803006846FEF7D5
:10372000E9FC01940020ADF80800ADF80A00ADF8FE
:103730000C00ADF810000C20ADF80E0001A90848EF
:10374000FFF71EFA002240F225510548FFF7F3F972
:1037500001210348FFF75EF906B010BD00080140E3
:103760000038014010B586B0044601210820FEF75C
:1037700025FD01218804FEF701FD2A48FFF756F9CF
:103780004FF48060ADF8100003208DF8120018206F
:103790008DF8130004A92448FEF7EAFB4FF40060FB
:1037A000ADF8100004208DF8130004A91E48FEF7A0
:1037B000DFFB00940020ADF80400ADF80600ADF882
:1037C0000800ADF80C000C20ADF80A006946154859
:1037D000FFF7D6F901211348FFF71CF9012240F247
:1037E00025511048FFF7A7F927208DF81400022073
:1037F0008DF8150003208DF8160001208DF81700B4
:1038000005A8FEF777FC41F61F413120FEF7A8FF1F
:1038100000200649088000210548FEF7D4FF06B0C5
:1038200010BD000000480040000C014034000020A2
:103830000014004010B500290AD00878002807D0ED
:1038400005487844FDF7D8FD002801D0002010BDC0
:103850000248784410BD0000720100006A010000B7
:1038600010B500290AD00878002807D00548784408
:10387000FDF7C2FD002801D0002010BD02487844A9
:1038800010BD0000620100005A010000FDF7D4B92C
:10389000FDF708BB04000008000000000000000263
:1038A0000001000010000000000000000000000007
:1038B0003031323334353637383941424344454666
:1038C0004030580030313233343536373839616260
:1038D00063646566403078003031323334353637D2
:1038E0003839616263646566787000303132333430
:1038F0003536373839414243444546585000000078
:1039000002400000000000A0000000000540000090
:10391000000000C8000000000C4000000000409CB7
:1039200000000000194000000020BCBE00000000A4
:1039300034400000BFC91B8E00000004B5400000E9
:10394000504BCFD06607E2CF010000006C41000071
:103950003E8251AADFEEA73401000000D9420000E8
:10396000DCB5A0E23A301F97FFFFFFFFB44500002F
:10397000FD25A0C8E9A3C14FFFFFFFFFFF3F0000E7
:103980000000008000000000FF3F000000000080F9
:1039900000000000E03A000800000020580000008D
:1039A0006C010008383B000858000020D0380000A7
:1039B000880100081C00000043000000F8FFFFFF22
:1039C0000C0000000E0000000F0000002E000000A0
:1039D0001001000043000000F8FFFFFF00404040DE
:1039E00040404040404041414141414040404040D2
:1039F000404040404040404040404040400502027E
:103A0000020202020202020202020202022020203C
:103A10002020202020202002020202020202909098
:103A20009090909010101010101010101010101096
:103A300010101010101010100202020202028888EA
:103A400088888888080808080808080808080808F6
:103A500008080808080808080202020240000000DE
:103A60000000000000000000000000000000000056
:103A70000000000000000000000000000000000046
:103A80000000000000000000000000000000000036
:103A90000000000000000000000000000000000026
:103AA0000000000000000000000000000000000016
:103AB0000000000000000000000000000000000006
:103AC00000000000000000000000000000000000F6
:103AD00000000000000000000000000000000000E6
:103AE00000A24A04000000000000000001020304DC
:103AF00006070809000000000000000000000000A8
:103B000000000000000000000100000000000000B4
:103B100000000000000000000000000000000000A5
:103B20000001020304010203040607080902040657
:083B3000080000000000000085
:0400000508000131BD
:00000001FF
